:020000040800F2
:100000000008002045010008912E00086F28000814
:10001000192D0008190900085F36000800000000CB
:100020000000000000000000000000006B2F00082E
:10003000B50A000800000000B32E0008D92F000800
:100040005F0100085F0100085F0100085F01000810
:100050005F0100085F0100085F0100085F01000800
:100060005F0100085F0100085F0100085F010008F0
:100070005F0100085F0100085F0100085F010008E0
:100080005F0100085F0100085F0100085F010008D0
:100090005F0100085F0100085F0100085F010008C0
:1000A0005F0100085F0100085F0100085F010008B0
:1000B0005F0100085F0100085F0100085F010008A0
:1000C0005F0100085F0100085F0100085F01000890
:1000D0005F0100085F0100085F0100085F01000880
:1000E0005F0100085F0100085F0100085F01000870
:1000F0005F0100085F0100085F0100085F01000860
:100100005F0100085F0100085F0100085F0100084F
:10011000113300081D330008753000085F01000826
:100120005F0100085F010008150A0008210A0008A5
:10013000DFF80CD000F0A8FB00480047DD410008C4
:10014000000800200648804706480047FEE7FEE713
:10015000FEE7FEE7FEE7FEE7FEE7FEE7FEE7FEE777
:100160002D30000831010008202A04DB203A21FA52
:1001700002F00021704721FA02F3D040C2F12002C0
:100180009140084319467047D2B201E000F8012BB4
:10019000491EFBD270470022F6E710B513460A4607
:1001A00004461946FFF7F0FF204610BDF0B480EA80
:1001B0000102D40F4200B2EB410F02D202460846C0
:1001C00011464A0042D0C30DDDB2C1F3C752AD1A89
:1001D000202D35DAC1F3160141F4000204B1524278
:1001E000C5F1200602FA06F12A411044B3EBD05FB4
:1001F00023D0C4B1012DA0EBC35009DCF0BC4FF0FB
:10020000004202EAC352DBB200F5000000F081BAFE
:10021000400000F1807000EBC350A0F1807040EA14
:10022000D170490009E0490841EAC071A0EBC35010
:1002300000F50000400800EBC350F0BC00F060BACD
:100240006142012202EB4101001BF6E7F0BC70475E
:1002500081F00041AAE780F00040A7E780EA0102B0
:1002600010B502F00043400022D04A001FD0010E1A
:1002700001EB1261C0F35600C2F3560240F40000D5
:1002800042F40002A0FB022000047F39140400D0D5
:10029000401C50EA124001D44000491EC2B20C0674
:1002A00004EBD010401C4008802A02D003E000205C
:1002B00010BD20F00100002900DA0020184310BD15
:1002C0002DE9FE4F804681EA0300C00F0C460090E6
:1002D00021F0004123F00045B8EB0200A94105D20E
:1002E0004046214690461C460B46024623F00040FD
:1002F000104347D0270DC7F30A00C3F30A510290F9
:10030000401A019040286BDAC3F3130040F4801BBD
:100310000098924620B10023D2EB030A63EB0B0B4B
:1003200001985946C0F14002504600F0C8F906460F
:100330000D4650465946019A00F0D0F910EB0800DE
:100340006141002487EA115284EAE7731A4340D0DE
:10035000009A62B3019A012A4FEA075215DC001B8A
:1003600061EB02014FF0004202EA0752CDE9004280
:10037000001C41F5801132462B4600F007FA03B00D
:10038000BDE8F08F40462146F9E7001B61EB020112
:10039000001C41F5801300185B412018A2F50017DE
:1003A00047EB030140EAD570B6196D4111E06D08C5
:1003B0004FEA360645EAC0754FEA0752001B61EB6B
:1003C0000201001C41F5801149084FEA3000001974
:1003D000514132462B4603B0BDE8F04F00F0C7B99B
:1003E0000098012240000023D0EB020263EBE0738F
:1003F000009821464FEAE074B8EB000061EB04017D
:10040000E9E783F000435BE781F0004158E72DE91D
:10041000FE4F81EA030404F0004421F000410094FF
:100420004FF0000B23F0004350EA01045ED052EA83
:1004300003045BD0C3F30A54C1F30A552C44A4F25D
:10044000F3340194A0FB0254C1F3130141F4801171
:10045000C3F3130343F4801301FB024400FB034E78
:10046000840A970A44EA815447EA8357A4FB076841
:1004700002958D0A05FB07854FEA932C04FB0C546B
:100480002705029D4FEA065847EA1637B5EB0805DF
:100490006EEB070C870E920E47EA811742EA831231
:1004A000A7FB0201B6EB0B0164EB00042B0D43EA42
:1004B0000C335E1844EB1C50DA465146E7FB020150
:1004C000C5F313044FEA0B3343EA14534FEA0432E3
:1004D000019C43EA0603A4F10C040294009CCDE9BC
:1004E00000B400F053F903B0BDE8F08F00200146DE
:1004F000F9E72DE9F04D81EA030404F0004B21F007
:10050000004514464FF0000A23F0004150EA05026E
:1005100020D054EA01021DD0C5F30A570246C5F3A4
:100520001303C1F31300C1F30A5640F4801543F4DA
:100530008013A7EB0608101BD64608F2FD3873EBB4
:10054000050002D308F1010801E092185B41B8F1FF
:10055000000F03DA00200146BDE8F08D00204FF4C3
:100560008011064684460EE0171B73EB050705D382
:10057000121B63EB050306434CEA010C49084FEAE2
:10058000300092185B4150EA0107EDD152EA0300B6
:1005900012D082EA040083EA0501084305D0101B4B
:1005A000AB4106D20122002306E000224FF00043B7
:1005B00002E06FF0010253101AEB06004CEB0851F9
:1005C00010EB0A0041EB0B01BDE8F04D00F0CFB895
:1005D000C10F80EAE0700844CA079623002100F0AA
:1005E00098B820F00040C10DC0F3160040F40000A0
:1005F0007F2901DA00207047962903DCC1F19601BA
:10060000C840704796398840704700F0004230F08B
:1006100000400AD0C10D01F56071C0F3160042EA36
:100620000151C2084007114370470020014670473E
:1006300030B50B46014600202022012409E021FAB2
:1006400002F59D4205D303FA02F5491B04FA02F5AF
:100650002844151EA2F10102F1DC30BD2DE9F05F46
:100660000546002092469B46884606468146402421
:100670001BE02846414647462246FFF775FD534694
:100680005A46C01A914110D311461846224600F02E
:1006900016F82D1A67EB01084F462246012000216B
:1006A00000F00DF817EB00094E41201EA4F10104E3
:1006B000DFDC484631462A464346BDE8F09F202A03
:1006C00004DB203A00FA02F1002070479140C2F1A9
:1006D000200320FA03F3194390407047202A06DBD9
:1006E000CB17203A41FA02F043EAE07306E041FA00
:1006F00002F3D040C2F120029140084319467047EE
:100700000029A8BF7047401C490008BF20F0010025
:10071000704710B4B0FA80FC00FA0CF050EA010403
:1007200004BF10BC704749B1CCF1200421FA04F495
:1007300011FA0CF118BF012121430843A3EB0C016E
:10074000CB1D4FEA00614FEA102042BF002010BCD1
:10075000704700EBC35010440029A4BF10BC704781
:10076000401C490008BF20F0010010BC704710B5C4
:10077000141E73F1000408DA401C41F100019218C4
:100780005B411A4301D120F0010010BD2DE9F04D6D
:1007900092469B4611B1B1FA81F202E0B0FA80F2C2
:1007A00020329046FFF78BFF04460F4640EA0A00CE
:1007B00041EA0B0153465A46084313D0114653EA07
:1007C000010019D0C8F140025046FFF7CDFC0546A4
:1007D0000E46504659464246FFF771FF084305D082
:1007E000012004E020463946BDE8F08D0020054395
:1007F00046EAE0762C4337430A986305E40AA0EB07
:1008000008000022FD0A44EA47540A3002D50020BD
:100810000146E9E7010510196941DDE908450019BC
:100820006941BDE8F04DA2E7C1F30A52C1F31301DB
:1008300040F2FF3341F480119A4202DA002001466F
:10084000704740F233439A42A2F2334202DC5242F2
:10085000FFF78ABCFFF733BF30B5041E71F1000407
:1008600004DB4FF00044404264EB0101141E73F1BD
:10087000000405DB1C464FF00043524263EB0403C7
:10088000994208BF904230BD064C074D06E0E06833
:1008900040F0010394E8070098471034AC42F6D3C7
:1008A000FFF74AFCA8640008C864000870B50C464D
:1008B000050001D044B119E0C4B10122002000F0CC
:1008C0002DF80122214618E000220146104600F0D2
:1008D00025F800222946012000F020F801222946AF
:1008E000032000F01BF80122294610E000220146F7
:1008F000104600F013F800222946012000F00EF8FF
:1009000000222146032000F009F800222146BDE81C
:100910007040022000F002B8FEE700002DE9F04729
:10092000DFF8E4800C464FF400654FF4806968B14D
:10093000AE10EF10012820D0DFF8D080032837D088
:10094000022832D19AB3012A51D05AE012B1012AB9
:1009500007D010E000222946404600F0BFFC0122EB
:1009600005E001222946404600F0B8FC0022494635
:10097000404600F0B3FC264816E012B1012A07D029
:1009800010E000223146404600F0A8FC012205E0BC
:1009900001223146404600F0A1FC00223946404683
:1009A00000F09CFC1A4808300460BDE8F08717E0AE
:1009B00012B1012A07D010E001223946404600F06A
:1009C0008DFC002205E000223946404600F086FCFE
:1009D00001223146404600F081FC0D48001FE3E74C
:1009E00001224946404600F079FC002205E0002241
:1009F0004946404600F072FC01222946404600F07C
:100A00006DFC0348001DCFE70014014000080140C1
:100A1000380C0040014800F0BDB900007803002008
:100A2000014800F0B7B90000BC03002030B590F8D1
:100A300040500124AC40C56B6C600468636043683F
:100A4000102B036803D099600068C26030BD9A60C3
:100A50000068C16030BD000030B514490024A1F128
:100A600040004A788270CA7801460A70B0F8451092
:100A7000018790F8473000F1380180F83A30CC70A7
:100A80000C784978303C04EBC40505EB041403EB07
:100A90008403074C01EB810104EB41011944C1635C
:100AA000302A01D14942C16330BD00004800002016
:100AB000F0FDFFFF70470000F8B5474C47A14948DB
:100AC000A26902F0CDFD00254FF6FF763346454A78
:100AD00029462846009503F031FB43A14148E269CD
:100AE00002F0BEFD33463F4A00210C20009503F082
:100AF00025FB3FA13B48226A02F0B2FD3346394A4A
:100B000000211820009503F019FB3BA13548626ACB
:100B100002F0A6FD3346334A00212420009503F05D
:100B20000DFBA06AFFF771FD02460B4634A12D486C
:100B300002F096FD33462B4A00213020009503F049
:100B4000FDFAE06AFFF761FD02460B4630A1254839
:100B500002F086FD3346234A00213C20009503F035
:100B6000EDFA206BFFF751FD02460B462CA11D4804
:100B700002F076FD33461B4A00214820009503F021
:100B8000DDFA606BFFF741FD02460B4628A11548D0
:100B900002F066FD3346134A00215420009503F00D
:100BA000CDFA04F1400226A10E4802F059FD334669
:100BB0000C4A00216020009503F0C0FAA27824A11D
:100BC0000848E36B02F04CFD3346064A00216C20D6
:100BD000009503F0B3FAF8BD080000204C463A2512
:100BE00030366400980000204C423A2530366400CC
:100BF00052463A253036640052423A253036640077
:100C00004C465F445554593A252E32660000000088
:100C10004C425F445554593A252E3266000000007C
:100C200052465F445554593A252E32660000000062
:100C300052425F445554593A252E32660000000056
:100C40007265635F737472206973202573000000FE
:100C5000636F6E74726F6C3A2563202530346400C4
:100C6000704700002DE9F05F90F821100024022960
:100C700003D004218163012485E001680A6822F021
:100C80000E020A6001680A6822F001020A603F4E03
:100C90003E4FB215DFF8F4C0DFF8F090DFF8ECA0BB
:100CA000DFF8E8B0DFF8E4E00168783F13011502EF
:100CB000ACF1640CA9F15009AAF13C0AABF1280B84
:100CC000AEF1140E4FF48018B14227D9B9420ED0BC
:100CD000614512D049451DD0514518D0594518D00D
:100CE000714501D1424615E0294EB14201D10122A0
:100CF00010E0274E1436B14201D110220AE0244EF2
:100D00002836B14206D0224A3C32914201D11A46DD
:100D100000E02A461E49091F0A602BE0B94213D0A1
:100D2000614517D0494522D051451DD059451DD0A8
:100D3000714501D142461AE0B14202D14FF08072B2
:100D400015E0134EB14201D1012210E0104E1436CD
:100D5000B14201D110220AE00D4E2836B14206D030
:100D60000B4A3C32914201D11A4600E02A4607491B
:100D700080394A60012180F82110002180F820107C
:100D8000416B01B188472046BDE8F09F80000240DA
:100D9000080402402DE9F05FC16B0A6801680B6826
:100DA000046C4FF0040808FA04F8844D844E854F13
:100DB000DFF814C2DFF81492DFF814A2DFF814B2DF
:100DC000DFF814E218EA020F65D05FEA437862D5D3
:100DD0000A68920603D40A6822F004020A60DFF867
:100DE000F0814FF48062016808F1140813011402C5
:100DF000414524D9A9420DD0B1420FD0B9421AD0F1
:100E0000614515D0494515D0514501D1120312E075
:100E1000594501D104220EE0714501D140220AE07A
:100E20006D4D1435A94206D06B4A2832914201D14A
:100E30001A4600E022466749091F0A6029E0A942D4
:100E400013D0B14215D0B94220D061451BD04945DD
:100E50001BD0514502D14FF4800217E0414502D129
:100E60004FF0806212E0594501D104220EE0714535
:100E700001D140220AE0584D1435A94206D0564A05
:100E80002832914201D11A4600E022464B490839E6
:100E90004A60C16A71E04FF0020808FA04F818EAE3
:100EA000020F70D05FEA83786DD50A68920606D487
:100EB0000A6822F00A020A60012180F82110DFF896
:100EC00010814FF40072016808F114081301140234
:100ED000414524D9A9420DD0B1420FD0B9421AD010
:100EE000614515D0494515D0514501D1120312E095
:100EF000594501D102220EE0714501D120220AE0BC
:100F0000354D1435A94206D0334A2832914201D1D9
:100F10001A4600E022462F49091F0A6029E0A9422B
:100F200013D0B14215D0B94220D061451BD04945FC
:100F30001BD0514502D14FF4001217E0414502D1B8
:100F40004FF0007212E0594501D102220EE07145C6
:100F500001D120220AE0204D1435A94206D01E4AB4
:100F60002832914201D11A4600E02246134908393D
:100F70004A60002180F82010816A00291CD0BDE859
:100F8000F05F0847FFE70825A540154214D01A076F
:100F900012D50A6822F00E020A6090F84020C36B56
:100FA000012101FA02F25A60816380F821100021C8
:100FB00080F82010016BE0E7BDE8F09F08000240D8
:100FC0001C00024030000240440002405800024031
:100FD0006C000240080402401C04024030B560B1BD
:100FE0001A4B026814219A4209D2194B1344B3FBDD
:100FF000F1F18900016417490AE0012030BD134B6B
:101000005B421344B3FBF1F1890001640F490839D5
:10101000C163022180F82110136843F6F0718B43FD
:10102000F0E901142143D0E902452C43214304692E
:1010300021434469214384692143194311600021FC
:101040004163012242770177084630BD080402401F
:10105000F8FFFDBF0000024070B5044690F8200084
:10106000002501280CD0012084F8200094F821608C
:101070000020012E06D084F820000225284670BDED
:10108000022070BD022684F82160A06320680668F3
:1010900026F0010606602046FFF7C8FCE06A00283B
:1010A0002068016802D041F00E0106E021F0040141
:1010B00001602068016841F00A0101602068016850
:1010C00041F001010160D9E770B5044600F00CF968
:1010D0000546601C02D004480078044400F004F97E
:1010E000401BA042FAD370BD500000202DE9F84FFC
:1010F000DFF8B8A100220AF1040B144601274FF0D3
:101100000F090BF1040E00BF0B6807FA04F52B4022
:10111000AB4274D1DFF898C14E68A6EB0C08664567
:101120002BD00DDC032E34D005DC36B3012E19D0C4
:10113000022E2FD11BE0112E16D0122E2AD119E02B
:10114000B8F5881F19D006DCB8F5803F15D0B8F582
:10115000801F1FD111E0B8F5001F0ED0B8F5041F95
:1011600018D10AE0CA6815E0CA68121D12E0CA6800
:1011700008320FE0CA680C320CE08A682AB1012AF2
:101180004FF0080203D0456104E0042202E005614B
:1011900000E00022FF2B01D8064601E000F1040622
:1011A0004FEA840501D9A5F12005D6F800C009FA57
:1011B00005F82CEA080C02FA05F54CEA050CC6F80D
:1011C00000C04D68ED006AD53A4DAE6946F00106A3
:1011D000AE61AD6924F0030605F001050095364DBA
:1011E00006EB050CDCF80850A6074FEA167809FA5A
:1011F00008F6B543314EB04202D100261AE04EE067
:101200002F4EB04201D1012614E02E4EB04201D142
:1012100002260FE02C4EB04201D103260AE02B4EED
:10122000B04201D1042605E0294EB04201D1052685
:1012300000E0062606FA08F62E43CCF808604D6852
:10124000DAF80060ED03554601D51E4300E09E43E9
:101250002E604D68AD0305D5DBF800601E43CBF86A
:10126000006004E0DBF800509D43CBF800504D686F
:10127000DEF80060ED02754601D51E4300E09E4396
:101280002E604D68AD0205D5084D0C352E681E4305
:101290002E6004E0054E0C3635689D433560641CB5
:1012A000102CFFF431AFBDE8F88F000000040140BE
:1012B0000000111000100240000001400008014031
:1012C000000C0140001001400014014000180140D2
:1012D000001C0140C2684A40C26070470AB1016107
:1012E00070470904FBE70000014880687047000070
:1012F0005000002070B504001BD094F83D0000257C
:1013000020B984F83C50204600F094F8242084F85A
:101310003D002068016821F00101016000F00EFA33
:10132000404A6168914201D83F4900E03F49884204
:1013300001D2012070BD3E492368B0FBF1F1596034
:101340006368934206D94FF4967359434FF47A7306
:10135000B1FBF3F12368491C19626168914210D80E
:101360004900401EB0FBF1F2521CC2F30B02042AEA
:1013700001D2042022E0B0FBF1F0401CC0F30B00CE
:101380001CE0A368CBB301EBC10202EB0116421EC5
:10139000B2FBF6F2521C42F48042120536D06BB317
:1013A00001EBC10202EB0111401EB0FBF1F0401C49
:1013B000C0F30B0040F4804040F400402168C86155
:1013C000D4E90701084321680860D4E90310084301
:1013D00021688860D4E9050108432168C860206855
:1013E000016841F0010101602564202084F83D007E
:1013F000256384F83E50002070BD00E008E001EB5A
:101400004106421EB2FBF6F2521CC6E70120D5E7A8
:1014100001EB4101401EB0FBF1F0401CC0F30B009A
:10142000CAE70000A086010080841E0000093D007C
:1014300040420F0010B586B0002100910191029149
:10144000039100681349884222D1134CA06940F0EF
:101450000800A061A069694600F0080004904FF4FC
:101460004070009012200190032003900B48FFF77A
:101470003DFE0B48416841F0E06141F002014160EE
:10148000E06940F40010E061E06900F400100490AD
:1014900006B010BD0054004000100240000C014096
:1014A0000000014002488168027811448160704761
:1014B00050000020074810B5016841F0100101609C
:1014C000032000F073F8002000F006F800F024F884
:1014D000002010BD0020024070B50D4D04464FF4B1
:1014E0007A712878B1FBF0F00A490968B1FBF0F095
:1014F00000F02AFC48B9102C07D200222146501EC9
:1015000000F034F800206C6070BD012070BD000058
:10151000500000205C0000200C4808B5816941F0B3
:1015200001018161816901F001010091C16941F00E
:101530008051C161C06900F080500090044841684A
:1015400021F0E06141F00071416008BD00100240EF
:101550000000014000F01F0201219140400980007D
:1015600000F1E020C0F8001170470000F0B40E4B0D
:101570001B680C46C3F30223C3F10705042D00D9F1
:101580000425191D072901D2002300E0DB1E0126D6
:1015900006FA05F1491E214099409E40761E1640EC
:1015A0003143F0BC01F075BC0CED00E0064900F0E1
:1015B000070208684FF6FF03184040EA0220034A7A
:1015C00010430860704700000CED00E00000FA05D1
:1015D0002DE9F047DFF8548105460E46D8F80000A3
:1015E00000F00700B0420CD2D8F8001021F007013B
:1015F0003143C8F80010D8F8000000F00700B042EE
:101600006FD128684A4C810712D5400703D560681E
:1016100040F4E06060602878000703D5606840F41B
:10162000605060606068A96820F0F0000843606066
:101630002878C00744D06868012816D0216802289D
:1016400016D0890700294CDA616821F003010143B3
:101650006160FFF749FE6968074641F28830012959
:101660000ED00229814618D026E021688903E9E7D7
:101670008901E7E7FFF738FEC11B494501D918E0AA
:1016800081466068C0F381000128F3D118E000BFF3
:10169000FFF72AFEC11B49450BD86068C0F38100E3
:1016A0000228F5D10CE000BFFFF71EFEC11B494523
:1016B00002D90320BDE8F087606810F00C0FF3D169
:1016C000D8F80010404601F00701B1420BD901687B
:1016D00021F0070131430160006800F00700B042CB
:1016E00001D00120E6E72878400705D56068E96861
:1016F00020F4E060084360602878000706D5606841
:10170000296920F4605040EAC100606000F036F8BA
:101710006168084AC1F30311515CC840064908607A
:101720000020FFF7D9FE0020C4E70000002002409F
:1017300000100240906400085C0000200448054945
:1017400000684968044AC1F30221515CC8407047EF
:101750005C00002000100240A06400080448054915
:1017600000684968044AC1F3C221515CC84070470F
:101770005C00002000100240A064000812A185B0A7
:101780000FC98DE80F0014A0144A00680490516836
:10179000134801F00C03042B10D0082B0ED1C1F319
:1017A0008343C9031DF803000AD5516804AAC1F395
:1017B0004041515C0A4A5043B0FBF1F005B070471C
:1017C00008494843FAE70000020304050607080930
:1017D0000A0B0C0D0E0F1010010200000010024049
:1017E00000127A0000093D002DE9F84F0446007808
:1017F000B94DC00748D06868C0F38100012807D000
:101800006868C0F38100022809D16868C00306D562
:101810002868800338D5606800286FD034E060689D
:10182000B0F5803F0BD010B1B0F5A02F11D02868D3
:1018300020F480302860286820F4802002E02868A6
:1018400040F480302860606888B1FFF74DFD06469F
:1018500009E0286840F480202860F0E7FFF744FDA5
:10186000801B642875D828688003F7D50CE0FFF743
:101870003BFD064605E000BFFFF736FD801B6428F0
:10188000F0D828688003F7D42078944E80074FF072
:1018900001094FF000083BD5686810F00C0F07D025
:1018A0006868C0F38100022809D16868C00306D4C3
:1018B0002868800714D5206901281FD110E020690D
:1018C000B0B1C6F80090FFF70FFD074605E000BF76
:1018D000FFF70AFDC01B0228C4D828688007F7D587
:1018E0002868616920F0F80040EAC10028600FE034
:1018F000C6F80080FFF7F8FC074606E0E9E000BF05
:10190000FFF7F2FCC01B022823D828688007F7D411
:10191000207800072CD57248A169D9B1C0F8009091
:10192000FFF7E2FC074604E0FFF7DEFCC01B0228DD
:101930000FD8686A8007F7D56A484FF4FA510068F3
:10194000B0FBF1F0009000BF0098411E0091FAD268
:101950000EE080E0C0F80080FFF7C6FC074604E018
:10196000FFF7C2FCC01B022875D8686A8007F7D44D
:101970002078400760D5E8690027C00008D4E869EE
:1019800040F08050E861E869012700F08050009045
:1019900055480168C90513D40168834641F4807134
:1019A0000160FFF7A1FC824606E000BFFFF79CFC48
:1019B000A0EB0A0064284ED8DBF80000C005F5D57E
:1019C000E06801280AD008B1052813D0286A20F061
:1019D00001002862286A20F0040002E0286A40F032
:1019E00001002862E06841F2883B98B1FFF77CFC77
:1019F00082460BE0286A40F004002862EEE700BF50
:101A0000FFF772FCA0EB0A0159455AD8286A8007F3
:101A1000F6D50CE0FFF768FC824605E0FFF764FCB2
:101A2000A0EB0A0159454CD8286A8007F6D41FB1AB
:101A3000E86920F08050E861E06988B36968C1F323
:101A40008101022945D00228C6F8608004D0FFF742
:101A50004BFC044638E034E0FFF746FC074604E060
:101A6000FFF742FCC01B02282BD828688001F7D45E
:101A7000206AB0F5803F05D16868A16820F4003085
:101A800008436860D4E908010843696821F47411C7
:101A900008436860C6F86090FFF726FC044606E03D
:101AA00015E000BFFFF720FC001B022809D82868BA
:101AB0008001F7D50BE000BFFFF716FC001B0228E2
:101AC00002D90320BDE8F88F28688001F4D40020F3
:101AD000F8E70120F6E70000001002400000424253
:101AE000800442425C0000200070004070B5040099
:101AF00005D00025A56294F8510010B104E0012042
:101B000070BD204600F034F8022084F851002068AF
:101B1000016821F040010160D4E901010843D4E9E2
:101B200003121143084361690843218B01F40071DA
:101B30000843E1690843216A0843A16A0843216810
:101B40000860A069042101EA1040616A0843216825
:101B500048602168E06A08612068C16921F4006179
:101B6000C1616565012084F85100002070BD00004E
:101B700030B585B000240094019402940394006869
:101B80001449884223D11448816941F4805181610C
:101B9000816901F480510491816941F004018161FE
:101BA00080690E4D00F004000490A02000900220F7
:101BB00001900320039069462846FFF797FA4020DA
:101BC000CDE90004694628460294FFF78FFA05B074
:101BD00030BD00000030014000100240000801400C
:101BE0002DE9F84F044690F8500000269946174614
:101BF0000D4601280DD04FF0010B84F850B0FFF7CF
:101C000073FB804694F85100B246012804D00226A6
:101C100094E00220BDE8F88F002D7BD0002F79D012
:101C2000032084F85100C4F854A02563A786E786F2
:101C3000C4F838A0A4F83CA0A4F83EA0C4F844A07E
:101C4000C4F840A0A068B0F5004F04D12068016836
:101C500041F48041016020680168490603D40168AD
:101C600041F040010160E068B0F5006F606804D0A9
:101C700030B3E08E012823D03EE010B1E08E012881
:101C80001AD135F8021B206805E0206881688907B1
:101C900006D535F8021BC160E08E401EE0860BE0E1
:101CA000B9F1000F34D0B9F1FF3F05D0FFF71CFBAD
:101CB000A0EB080149452BD2E08E0028E5D11EE0BB
:101CC000216815F8010B087306E020688168890710
:101CD00006D515F8011B0173E08E401EE0860BE06F
:101CE000B9F1000F14D0B9F1FF3F05D0FFF7FCFAAE
:101CF000A0EB080149450BD2E08E0028E5D14B4608
:101D0000012202212046CDF8008001F0E3F810B155
:101D1000032613E011E042464946204601F0CAF886
:101D200018B101262020606508E0A06818B9206875
:101D3000C16880680090606D00B1012684F851B0E0
:101D400084F850A0304665E710B5401EB0F1807FA2
:101D500001D3012010BD4FF0E02460610F21601716
:101D600001F097F80020A06107202061002010BD3D
:101D70007047704730B590F83C20012A20D00122EE
:101D800080F83C20022380F83D3003685C6824F032
:101D900070045C6003685C680D682C435C600368D9
:101DA0009C6824F080049C6003689C6849680C432C
:101DB0009C6080F83D20002180F83C10084630BD32
:101DC000022030BD10B5040003D094F83D0010B1DE
:101DD00007E0012010BD002084F83C00204600F000
:101DE0000DF8022084F83D00211D206801F048F91B
:101DF000012084F83D00002010BD000008B50068F7
:101E00000B49884212D10B48C16941F01001C161F0
:101E1000C069002200F01000009011463620FFF744
:101E2000A5FBBDE808403620FFF794BB08BD0000C5
:101E300000100040001002400168CA6842F0010230
:101E4000CA600068016841F001010160002070472C
:101E50002DE9F0410D46040003D094F83D0018B17F
:101E600008E00120BDE8F081002084F83C00204615
:101E700000F03AF8022084F83D002068816821F0E3
:101E800007018160211D206801F0FAF8226890683E
:101E90009169166A2B68AF69034340F203308143AE
:101EA00041EA0721A868EF6908434FF6FC418843DF
:101EB000E96840EA0720014328692F6A000140EAE7
:101EC0000730084369686D6926F0AA0646EA0515D9
:101ED000294393602268906120680162012084F8A0
:101EE0003D000020BEE7000030B585B0002500951C
:101EF0000195029503954D4A01684D484D4C91421C
:101F00001ED1816941F400618161816901F4006140
:101F10000491816941F0400181618069694600F066
:101F2000400004904FF4206000904348FFF7DEF833
:101F3000606820F0C00040F0E06040F0C00051E078
:101F4000B1F1804F20D03D4A91424ED1C16941F05C
:101F50000201C161C16901F002010491816941F08E
:101F6000100181618069694600F010000490C02072
:101F700000903348FFF7BAF8606820F4406040F002
:101F8000E06040F440602DE0C16941F00101C161B1
:101F9000C16901F001010491816941F0040181618D
:101FA000816901F004010491816941F008018161B6
:101FB0008069694600F0080004904FF400400090EA
:101FC0002048FFF793F80820CDE9000569461E4830
:101FD0000295FFF78BF8606820F4407040F0E060F5
:101FE00040F48070606005B030BD184A9142FAD16B
:101FF000C16941F00401C161C16901F004010491AA
:10200000816941F0200181618069694600F020000A
:1020100004904FF4405000900D48FFF767F8606857
:1020200040F0E06040F48050DCE70000002C01400C
:102030000010024000000140001801400004004070
:102040000010014000080140000C01400008004061
:102050000014014010B50446006891B1042904D071
:102060000122002101F052F8206801225FF00401F2
:1020700001F04CF82068016841F001010160002086
:1020800010BD01220021F3E7704770B504460068D7
:1020900001694FF00005C943890715D4C168C943D8
:1020A000890711D4E91E0161012020772068806929
:1020B0008007204602D0FFF7E7FF04E000F0BEF8FB
:1020C000204600F053F9257720680169C943490784
:1020D00017D4C168C943490713D46FF004010161E3
:1020E000022020772068806910F4407F204602D0CB
:1020F000FFF7CAFF04E000F0A1F8204600F036F92F
:10210000257720680169C943090716D4C168C94306
:10211000090712D46FF008010161042020772068BC
:10212000C0698007204602D0FFF7AEFF04E000F050
:1021300085F8204600F01AF9257720680169C9431F
:10214000C90617D4C168C943C90613D46FF010017A
:102150000161082020772068C06910F4407F204684
:1021600002D0FFF791FF04E000F068F8204600F08D
:10217000FDF8257720680169C943C90708D1C168FE
:10218000C943C90704D1891E0161204600F00CF93A
:1021900020680169C943090609D4C168C943090611
:1021A00005D46FF0800101612046FFF7E1FD206852
:1021B0000169C943490609D4C168C943490605D420
:1021C0006FF040010161204600F0A0F9206801692C
:1021D000C94389060BD4C168C943890607D46FF087
:1021E000200101612046BDE87040FFF7C2BD70BD0F
:1021F00000B585B000210091019102910391006822
:102200000B49884211D10B48816941F00401816179
:102210008069694600F0040004900F2000900220BD
:10222000019003900448FEF761FF05B000BD000077
:10223000000C00400010024000080140704770B5DB
:10224000044690F83C000D4601280DD0012684F884
:102250003C60022084F83D0042B1042A18D0082ACC
:102260002AD00C2A4DD139E0022070BD206800F040
:1022700059FF2068816941F0080181612068816906
:1022800021F004018161206881692A69114311E00C
:10229000206800F077FF2068816941F40061816166
:1022A0002068816921F480618161206881692A69DF
:1022B00041EA0221816124E0206800F099FF206852
:1022C000C16941F00801C1612068C16921F00401C0
:1022D000C1612068C1692A69114311E0206800F0DA
:1022E000BBFF2068C16941F40061C1612068C16918
:1022F00021F48061C1612068C1692A6941EA022133
:10230000C16184F83D60002084F83C0070BD10B5C8
:10231000040003D094F83D0010B107E0012010BD87
:10232000002084F83C00204600F00CF8022084F8DD
:102330003D00211D206800F0A3FE012084F83D002F
:10234000002010BD08B500680649884208D106483B
:10235000C16941F00801C161C06900F00800009046
:1023600008BD0000000C0040001002407047000053
:1023700010B504460068012200F0C8FE0849206834
:10238000884202D00749884203D1416C41F40041A0
:1023900041642068016841F001010160002010BD26
:1023A000002C0140003401402DE9F05F4F49884284
:1023B00079D14F4C00256078002875D0A088401C4A
:1023C00080B2A08064286ED901214A48FEF782FFBE
:1023D000DFF824A1DAF80000416ADFF820B1A1603B
:1023E000DBF80000436A4648E3600068426ADFF8B1
:1023F00014912261D9F80000466A47F6FF78A8EBED
:102400000303B8EB0101E361C4E90561A8EB020233
:10241000A8EB0600C4E9082001D54942A161002BC0
:1024200001DA5942E161002A01DA514221620028B1
:1024300001DA40426062A06900F098FDA16AFDF7F0
:10244000B5FE314E4FF40007A062B04201DBA66238
:1024500002E0B84200DAA562E06900F087FDE16AB7
:10246000FDF7A4FEE062B04201DBE66202E0B842A2
:1024700000DAE562206A00F079FD216BFDF796FE37
:102480002063B04201DB266302E0B84200DA256334
:10249000606A00F06BFD616BFDF788FE6063B0421F
:1024A00003DB666304E014E015E0B84200DA65631C
:1024B000DAF80010C1F82480DBF80010C1F824809D
:1024C0000F490968C1F82480D9F80010C1F82480A8
:1024D000A580BDE8F09FA580A562E56225636563E0
:1024E000A561E56125626562F3E70000B80200209E
:1024F000080000200010014078010020B8010020F1
:10250000F8010020380200200000F04170477047B9
:1025100070B5026804461068D168536910F00F0F57
:1025200050D003F0010501F4907635435DD0C20729
:1025300005D0CA0503D5E26B42F00102E26342070F
:1025400005D5DA0703D0E26B42F00202E2638207AC
:1025500005D5DA0703D0E26B42F00402E26302071A
:1025600005D5DA0703D0E26B42F00802E263E26BC2
:10257000002A33D0800604D5880602D5204600F014
:102580003AFF20684069E16BC0F38010090700D46E
:1025900028B3204600F018FF2068416949061AD583
:1025A000416921F040014161606BA0B11B49416369
:1025B000606BFEF757FB002810D0606B416BBDE8E5
:1025C00070400847830610D58B060ED52046BDE81F
:1025D000704000F010BF2046FFF799FF70BD204605
:1025E000FFF795FF0020E06370BD030606D50B06DC
:1025F00004D52046BDE8704001F000B84006F3D590
:102600004806F1D5D168204621F04001D160202153
:1026100084F8391000F02AF970BD00002933000851
:1026200070B5040004D094F83900002510B106E01C
:10263000012070BD84F83850204600F023F8242093
:1026400084F839002068C16821F40051C160204637
:1026500000F01CFF2068016921F4904101612068AD
:10266000416921F02A0141612068C16841F40051AB
:10267000C160E563202084F8390084F83A00002026
:1026800070BD00002DE9F04186B000240094019453
:10269000029403940646474F0568474902220323E4
:1026A0004648BD4251D1CD6945F40025CD61CD6983
:1026B00005F4002504958D6945F010058D61896943
:1026C000039301F0100104910115CDE90012694650
:1026D0000546FEF70BFDF814CDE9000469462846CF
:1026E0000294FEF703FD374D35484FF08008C5E9E9
:1026F0000004C5E902482C617F146C61C5E90647F6
:102700002846FEF76BFC08B1FEF7AAFA75636E6205
:102710002C4D2B484435283001C51020A5E8110167
:10272000284845F8104944306C61C5E90647FEF772
:1027300055FC08B1FEF794FA3563002211463420A7
:102740006E62FEF713FF34202FE01F4EB5422ED1EC
:10275000CD6945F48015CD61CD6905F480150495EA
:102760008D6945F010058D618D6905F010050495A2
:102770008D6945F020058D618969039301F0200181
:102780000491B114CDE900126946FEF7AFFC0420B4
:10279000CDE9000469460D480294FEF7A7FC00222B
:1027A00011463520FEF7E2FE3520FEF7D3FE06B0D7
:1027B000BDE8F081004C00400010024000100140D4
:1027C0003004024078030020005000400014014013
:1027D000F8B5044690F83A0020283CD1C1B3BAB30A
:1027E00094F83800012836D0012084F83800A1621E
:1027F000A2850025E563222084F83A00636B174820
:102800009862636B1648D862636B16481863606BF6
:10281000134645630846666B216802463046091D2B
:10282000FEF71AFC206801684168009184F838506E
:10283000C16841F48071C1602068416941F00101C3
:1028400041612068416941F0400141610020F8BDCB
:10285000FFE70120FBE70220F9E7000083330008CF
:10286000BF33000839330008704770477047FEE7F0
:102870000D4808B5416941F00201416140690022FB
:1028800000F00200009011463A20FEF76FFE3A2059
:10289000FEF760FE002211463B20FEF767FEBDE812
:1028A00008403B20FEF756BE001002402DE9F04FD5
:1028B00085B0002432480094019402940394816905
:1028C00041F010018161816901F010010491816979
:1028D00041F004018161816901F004010491816981
:1028E00041F040018161816901F0400104918169F9
:1028F00041F020018161816901F020010491816929
:1029000041F0080181618069DFF8789000F00800EB
:102910000490002211214846FEF7E0FCDFF868A091
:102920004FF47167002239465046FEF7D7FCDFF8B6
:102930005CB04FF47268002241465846FEF7CEFC68
:10294000112001250226CDE90005CDE902466946A0
:102950004846FEF7CBFB00970396CDE90154694644
:102960005046FEF7C3FBCDF800800396CDE9015435
:1029700069465846FEF7BAFB05B0BDE8F08F000087
:102980000010024000100140000801400014014006
:102990000D4810B50B4901600C49416000214FF40E
:1029A00080428160C0E9031241618161C1610162BD
:1029B000FEF7A0FC002803D0BDE81040FEF750B998
:1029C00010BD000000540040CC000020A086010093
:1029D000104810B50E4901604FF48271416000212A
:1029E0008160C1604FF400720161C0E905121022DC
:1029F000C0E90721416281620A21C162FFF776F8CE
:102A0000002803D0BDE81040FEF72AB910BD000031
:102A1000003001402001002010B58CB02421684610
:102A2000FDF7B9FB00241648099414490A94C0E93B
:102A300000144FF6FF71C0E90241046144618461F2
:102A40000320CDE900040120CDE902040494CDE97E
:102A50000540079469460A480894FFF7F9F908B158
:102A6000FEF7FEF8099409A905480A94FFF782F9D0
:102A7000002801D0FEF7F4F80CB010BD002C014086
:102A80007801002010B58CB024216846FDF783FB47
:102A90000024154809944FF080410A94C0E90014BD
:102AA0004FF6FF71C0E90241046184610320CDE962
:102AB00000040120CDE902040494CDE90540079407
:102AC000694609480894FFF7C3F908B1FEF7C8F84A
:102AD000099409A904480A94FFF74CF9002801D089
:102AE000FEF7BEF80CB010BDB801002010B58CB0D8
:102AF00024216846FDF74FFB002416480994144929
:102B00000A94C0E900144FF6FF71C0E90241046164
:102B100084610320CDE900040120CDE9020404947E
:102B2000CDE90540079469460A480894FFF790F9F3
:102B300008B1FEF795F8099409A906480A94FFF729
:102B400019F9002801D0FEF78BF80CB010BD000079
:102B500000040040F801002010B58CB02421684624
:102B6000FDF719FB00241648099414490A94C0E99A
:102B700000144FF6FF71C0E9024104618461032033
:102B8000CDE900040120CDE902040494CDE905401B
:102B9000079469460A480894FFF75AF908B1FEF706
:102BA0005FF8099409A906480A94FFF7E3F800289A
:102BB00001D0FEF755F80CB010BD00000008004031
:102BC0003802002010B58AB0002407941C21684602
:102BD0000894FDF7E0FA2248204901604721C0E946
:102BE00001146421C0E903148461FFF790FB08B16C
:102BF000FEF736F8079407A919480894FFF7BAF8C2
:102C000008B1FEF72DF86020CDE9000402940022FF
:102C1000694613480494FFF712FB08B1FEF720F849
:102C2000042269460E48FFF70AFB08B1FEF718F8C0
:102C3000082269460A48FFF702FB08B1FEF710F8C0
:102C40000C2269460648FFF7FAFA08B1FEF708F8C1
:102C50000348FFF7CDFA0AB010BD0000000C004099
:102C6000780200201CB500240E4800940C49019401
:102C700001604721C0E901144FF47A718461C16099
:102C8000FFF7A0F808B1FDF7EBFF0094694605488F
:102C90000194FFF76FF8002801D0FDF7E1FF1CBD9C
:102CA00000100040B80200200C4810B50A4901602D
:102CB0004FF4E1314160002181600C22C160C0E924
:102CC00004128161C161FFF7ABFC002803D0BDE8AD
:102CD0001040FDF7C5BF10BD004C0040F8020020B9
:102CE0000C4810B50A4901604FF4E1314160002100
:102CF00081600C22C160C0E904128161C161FFF7EB
:102D00008FFC002803D0BDE81040FDF7A9BF10BD1F
:102D10000050004038030020FEE7000010B50021FD
:102D20000C48FFF725FB04210A48FFF721FB082187
:102D30000848FFF71DFB0C210648FFF719FB064961
:102D400000200860091D0860091D0860091D086051
:102D500010BD000078020020340C00402DE9F04145
:102D60000C4606991D461646E1B3012941D00229B9
:102D700046D0032955D00A2969D0092975D00429DC
:102D80007FD1414D4C02002221462846FEF7A6FA8B
:102D90006610002231462846FEF7A0FAA71000224E
:102DA00039462846FEF79AFA4FF4807800224146C9
:102DB0002846FEF793FA354D002241462846FEF795
:102DC0008DFA002239462846FEF788FA002231465D
:102DD0002846FEF783FA21462846BDE8F041002246
:102DE000FEF77CBA002201461046FDF797FD00224F
:102DF00033E0014601220020FDF790FD01223AE078
:102E0000014601220020FDF789FD00222146012014
:102E1000FDF784FD002231460320FDF77FFD0122EE
:102E20000FE0002201461046FDF778FD0122214601
:102E30001046FDF773FD012231460320FDF76EFDBC
:102E400000222946BDE8F0410220FDF767BD01469A
:102E500001220020FDF762FD012221460120FDF73D
:102E60005DFD0022E8E700E00BE00022014610468D
:102E7000FDF754FD002221460120FDF74FFD012200
:102E8000C9E7BDE8F08100000014014000080140DE
:102E900070470907090E002806DA00F00F0000F15C
:102EA000E02080F8141D704700F1E02080F8001445
:102EB0007047704738B50B460092044600228021C7
:102EC00000F008F8002804D0606D40F02000606534
:102ED000032038BD2DE9F0411D4617460E46044635
:102EE000DDF8188035E0681C33D02DB1FEF7FCF911
:102EF000A0EB0800A8422CD32068416821F0E00133
:102F000041606068B0F5827F0BD1A068B0F5004FDA
:102F100002D0B0F5806F04D12068016821F0400133
:102F20000160A06AB0F5005F0AD1206801684DF623
:102F3000FF72114001602068016841F40051016096
:102F4000012084F85100002084F850000320BDE8DF
:102F5000F0812068806836EA000004D00020B84282
:102F6000C1D10020F3E70120F9E770472DE9F041D6
:102F700010490C68A169081AFDF72AFBE0600546B4
:102F80006169A068FDF76AF9266980463146606884
:102F9000FDF764F9074629462068FDF75FF93946D1
:102FA000FDF756F94146FDF701F9C4E90456BDE8BD
:102FB000F0810000000000200549044A09680A6009
:102FC000044A4A6000228A60886170470AD7A33D9C
:102FD000000000208FC2F53CFEF764BA30B58FB018
:102FE00028216846FDF7D7F814210AA8FDF7D3F881
:102FF00001210804CDE90010002402940225049167
:10300000CDE907504FF4E01009906846FEF7ECFB5D
:103010000F20CDE90A056802CDE90C4002210AA87B
:103020000E94FEF7D5FA0FB030BD00000D480168D0
:1030300041F00101016041680B4A114041600168A3
:103040000A4A11400160016821F480210160416851
:1030500021F4FE0141604FF41F0181600449C00367
:1030600008607047001002400000FFF8FFFFF6FE06
:1030700008ED00E00148FFF708B80000B8020020A2
:10308000F0B502681C4B1D4D1D4E1E4F1E4C4FF0DF
:10309000804C984209D0A04207D0604505D0A84294
:1030A00003D0B04201D0B84204D122F0700E4A6879
:1030B00042EA0E02984209D0A04207D0604505D0EE
:1030C000A84203D0B04201D0B84203D122F44075E7
:1030D000CA682A4322F080054A692A4302608A6846
:1030E000C2620A688262984201D0A04201D1096995
:1030F000016301214161F0BD002C0140000400404A
:1031000000080040000C00400034014010B50123CD
:10311000046A8B409C430462036A8A40134303623F
:1031200010BD0000F0B5026A22F001020262036ADB
:1031300042688469124E24F073050C682C4323F016
:1031400002058B682B430D4DA84201D0B04205D13A
:1031500023F00807CB683B4323F00403A84201D0C7
:10316000B04205D14D6922F4407215438A692A4361
:1031700042608461496841630362F0BD002C0140F4
:1031800000340140F0B5026A22F010020262026AC5
:10319000436884690D6824F4E64444EA05248D6894
:1031A00022F0200242EA05120F4D104EA84201D033
:1031B000B04206D1CF6822F0800242EA071222F024
:1031C0004002A84201D0B04207D14D6923F44063C8
:1031D00043EA85038D6943EA850343608461496856
:1031E00081630262F0BD0000002C01400034014008
:1031F000F0B5026A22F480720262026A4368C4690E
:1032000022F4007224F073050C68124E2C438D6872
:1032100042EA05220E4DA84201D0B04206D1CF6845
:1032200022F4006242EA072222F48062A84201D01E
:10323000B04207D14D6923F4405343EA05138D6929
:1032400043EA05134360C4614968C1630262F0BD8B
:10325000002C01400034014030B5026A22F4805253
:103260000262046A4268C3690D6823F4E64343EAD4
:1032700005238D6824F4005444EA0534084DA8421F
:1032800002D0084DA84204D14D6922F4804242EA9E
:1032900085124260C36149680164046230BD000068
:1032A000002C014000340140054804494068016099
:1032B000002141608160816170470000EC51B83DA0
:1032C000000000202DE9F041002800DA4042FDF71F
:1032D0007FF90E4905464C68E0606169A068FCF71B
:1032E000BDFF2669804631466068FCF7B7FF074698
:1032F00029462068FCF7B2FF3946FCF7A9FF414692
:10330000FCF754FFC4E90456BDE8F081000000203A
:103310000148FFF7FDB80000F80200200148FFF760
:10332000F7B800003803002010B5406A0021C185BD
:10333000C184FFF7ECF810BD70B5446A206840699D
:1033400094F83910C0F3C0100025212904D118B118
:10335000E584204600F046F82068406994F83A1069
:10336000C0F38010222904D118B1E585204600F071
:103370002BF8E06B40F01000E0632046FFF7C7F841
:1033800070BD10B50146406A09680968890613D402
:103390000021C1850168CA6822F48072CA60016890
:1033A0004A6922F001024A6101684A6922F040023A
:1033B0004A61202180F83A10FFF756FA10BD10B587
:1033C000406AFFF752FA10BD0168CA6822F4907291
:1033D000CA6001684A6922F001024A61202180F82E
:1033E0003A1070470168CA6822F0C002CA60202102
:1033F00080F83910704710B590F83A10222901D0A2
:10340000022010BD8168B1F5805F11D001690029EB
:1034100001681FD0496801F07F03816A4A1C8262FB
:103420000B70C18D491E0904090CC18518D02BE011
:103430000269816A002A0268526805D0D2B20A8005
:10344000816A491C8162ECE7C2F308020A80816A42
:10345000891CF7E74A68816A4B1C83620A70E0E7BF
:103460000168CA6822F02002CA600168CA6822F4B2
:103470008072CA6001684A6922F001024A61202113
:1034800080F83A10FFF7F0F9002010BD2DE9F04167
:10349000044600680169E26821F44051114301616A
:1034A0002169A0680843616908432168CA6841F23C
:1034B0000C639A430243CA6020684169A26921F4FF
:1034C0004071114341614C4920686425322688428D
:1034D0003CD1FEF743F900EBC00101EB001061683D
:1034E0008900B0FBF1F7FEF739F900EBC00101EB01
:1034F00000106168B0468900B0FBF1F0B0FBF5F058
:103500006FF01801484307EB800106EB0110B0FB98
:10351000F5F000F0F006FEF721F900EBC00101EB39
:10352000001061688900B0FBF1F0B0FBF5F006EB2C
:103530000016FEF713F900EBC00101EB0010616803
:103540008900B0FBF1F7FEF709F93BE0FEF7F6F86A
:1035500000EBC00101EB001061688900B0FBF1F7DE
:10356000FEF7ECF800EBC00101EB00106168B0461B
:103570008900B0FBF1F0B0FBF5F06FF018014843A3
:1035800007EB800106EB0110B0FBF5F000F0F00650
:10359000FEF7D4F800EBC00101EB00106168890070
:1035A000B0FBF1F0B0FBF5F006EB0016FEF7C6F845
:1035B00000EBC00101EB001061688900B0FBF1F77E
:1035C000FEF7BCF800EBC00101EB00106168890058
:1035D000B0FBF1F0B0FBF5F06FF01801484307EBDA
:1035E000800108EB0110B0FBF5F0216800F00F003E
:1035F00030448860BDE8F0810038014090F839100F
:10360000212901D0022070478168B1F5805F016AED
:103610000BD04A1C0262026809785160C18C491EB5
:103620000904090CC1840ED017E009880268C1F3AF
:103630000801516001690029016A02D0491C016238
:10364000ECE7891CFBE70168CA6822F08002CA60C7
:103650000068C16841F04001C16000207047FEE78A
:103660000FB4084B10B504A902AA039800F0DEF8C5
:10367000044602A9002000F070FC204610BC5DF852
:1036800014FB00005B3F000802E008C8121F08C1DD
:10369000002AFAD170477047002001E001C1121FD3
:1036A000002AFBD1704700002DE9FF5F82B00021A6
:1036B000DDE90430020DDDF840B0034318D044F6D4
:1036C0001050A2F2FF3242431514119801281FD066
:1036D000A5EB0B00401C5FEA000A4FF000064E4FBE
:1036E000DFF83891B046504615D5CAF1000413E012
:1036F000119801244AA3012801D16FEA0B01029815
:10370000119AC0E90031C0E9024206B0BDE8F09F5D
:10371000CBF10000DFE704460021404A491842EBA4
:103720000450CDE9001012E0E00707D032463B46D6
:1037300040464946FCF76BFE8046894632463B468A
:1037400010461946FCF763FE06460F466410002C2F
:10375000EAD1DDE90401DDE90023BAF1000F06DA60
:10376000FCF755FE42464B46FCF751FE05E0FCF7E0
:10377000C0FE42464B46FCF7BCFE04460E46002205
:10378000284BFDF769F803D84FF0FF30014607E0FA
:103790000022254B20463146FCF792FDFDF744F808
:1037A000102409E0002C0ADB0A220023FCF756FF54
:1037B000039B30321A55641E50EA0102F2D1641C98
:1037C000039AC4F111031444119A012A03D001226F
:1037D00008430DD10AE0084304D000204FF0110B3C
:1037E000119072E7A3EB0B056D1E0DE05B4504DD48
:1037F0004FF0000205F1010504E003DA4FF000028A
:10380000A5F10105002AECD002981199C0E9023116
:10381000C0E9004579E70000000014400000F03FD7
:10382000300000000000F0430000E03F2DE9FF4FB2
:1038300095B09B468946064600250FE2252877D19C
:1038400000242746F84A0121059400E0044316F8B5
:10385000013F203B01FA03F01042F7D130782A28CB
:1038600011D06FF02F033078A0F13002092A16D85A
:10387000059A44F0020402EB820203EB4202104478
:10388000761C0590EFE759F8042B0592002A03DA1D
:10389000504244F40054059044F00204761C307801
:1038A0002E2816D116F8010F44F004042A280DD052
:1038B0006FF02F023078A0F13003092B09D807EB05
:1038C000870302EB4303C718761CF3E759F8047B20
:1038D000761C30786C280FD006DC4C2817D068286E
:1038E0000DD06A2814D104E0742810D07A280FD1A2
:1038F0000DE044F400140AE044F4801401E044F4C0
:1039000040147278824202D104F58014761C761C31
:10391000307866280BD013DC582877D009DC0028D3
:1039200075D04528F6D04628F4D047281AD19DE115
:1039300018E0632835D0642879D0652812D195E144
:10394000702873D008DC6728F1D069286FD06E2802
:103950000DD06F2806D1B5E073282CD0752875D00E
:10396000782874D05A46179990476D1C75E1C4F3B6
:103970000250022809D003280DD0D9F800100428DD
:103980000DD00D6009F1040967E1D9F80010EA17BC
:10399000C1E90052F6E7D9F800100D80F2E70D708A
:1039A000F0E719F8041B8DF8001000208DF80100D5
:1039B000EA46012003E059F804AB4FF0FF306107FD
:1039C0004FF0000102D40DE008F101018846B94230
:1039D0000FDA8045F8DB1AF808100029F4D108E066
:1039E00008F1010188468142FADB1AF80810002923
:1039F000F6D105985B46A0EB080721463846179A92
:103A000000F094FA284400EB080507E04DE029E1B6
:103A10000DE01AF8010B5A4617999047B8F10108C2
:103A2000F7D25B4621463846179A13E142E00A2254
:103A30000092C4F302524FF0000A022A08D059F84B
:103A400004CB032A4FEAEC710AD00DE029E02AE00A
:103A500009F1070121F00702F2E802C1914609E0ED
:103A60000FFA8CFC4FEAEC71042A03D14FFA8CFC5C
:103A70004FEAEC71002907DA0A460021DCF1000C5C
:103A800061EB02012D2202E0220504D52B228DF8E4
:103A90000420012203E0E20701D02022F7E790464C
:103AA00059E00A2102E010220DE010214FF0000A37
:103AB00000910BE010224FF0000A44F004040827A4
:103AC000009203E008224FF0000A0092C4F3025271
:103AD000022A05D059F804CB0021032A08D009E0B6
:103AE00009F1070121F00702F2E802C1914605E061
:103AF0001FFA8CFC042A01D10CF0FF0C4FF00008D7
:103B0000220728D5702806D0009B83F0100353EAC3
:103B10000A0305D00EE040228DF80420012208E0BF
:103B20005CEA010206D030228DF804208DF80500F1
:103B300002229046009B83F0080353EA0A030AD14D
:103B40005CEA010201D1620705D530228DF804201C
:103B50004FF001087F1E582804D034A003900EA80F
:103B600002900DE036A0F9E753466046009AFCF754
:103B700075FD84460398825C0298401E0290027094
:103B80005CEA0100F0D1029806A9081A00F1200AA7
:103B9000600702D524F4803400E00127574502DD98
:103BA000A7EB0A0000E0002000EB0A010090059856
:103BB0004144401A0590E00306D45B462146179A1B
:103BC000059800F0B3F90544002706E001A85A461D
:103BD000C05D179990476D1C7F1C4745F6DBE003DD
:103BE0000CD55B462146179A059800F09FF90544CD
:103BF00004E030205A46179990476D1C0099481EE2
:103C000000900029F5DC08E0029802995A460078F5
:103C1000491C0291179990476D1CBAF10001AAF155
:103C2000010AF1DC65E1000009280100303132337E
:103C300034353637383961626364656600000000E8
:103C400030313233343536373839414243444546D2
:103C50000000000000F058F90544761C3078002878
:103C60007FF4ECAD19B02846BDE8F08F620700D4B0
:103C7000062709F1070222F0070CFCE80223E146BF
:103C800003F000485FEA080C02D00FF2702C0DE040
:103C90005FEA045C02D50FF2682C07E05FEAC47C9F
:103CA00002D00FF2602C01E0AFF2700C4FF0FF3841
:103CB00023F00043CDF850C065280CD006DC452821
:103CC00009D046281DD047283DD13DE0662818D0B0
:103CD00067287ED138E00021112F01DB112000E0A0
:103CE000781CCDE9000106A90EA8FFF7DDFCDDE98F
:103CF0000F010E9A03910021009207F1010A04912D
:103D00004DE04FF000400097CDE9011006A90EA844
:103D1000FFF7CAFCDDE90F0203920E9B1199002206
:103D2000DDF80CA00093049211B9791C00EB010A94
:103D3000B7EB0A0004D4C0F1FF3007F1010A049088
:103D4000AAEB0700019044E0012F00DA01270021CF
:103D5000112F01DD112000E03846CDE9000106A950
:103D60000EA8FFF7A1FCDDE90F010E9A03910021D7
:103D700004910092BA4621070CD40399514500DA08
:103D80008A46BAF1010F05DD009AAAF10101515CE2
:103D9000302908D0B84202DA10F1040F06DA012106
:103DA000CDE9011015E0AAF10101E9E7002805DCE1
:103DB000049901440491AAEB000102E0411C514521
:103DC00000DD8A460499401A401C01904FF00040E3
:103DD0000290200704D40198504501DBCDF80480FF
:103DE00000208DF84F0002980DF14F07B0F1004F01
:103DF00025D02B200E9002984FF0020800280CDAF4
:103E0000404202902D200E9007E00A210298FCF714
:103E10000FFC3031029007F8011DB8F10001A8F144
:103E20000108F2DC02980028EFD1791E0E98087084
:103E3000307800F0200040F0450007F8020D12A88D
:103E4000C01B00F107081498007800B1012000EBB6
:103E50000A01019801EBE07105984144401A401EA7
:103E60000590E00306D45B462146179A059800F0BA
:103E70005DF805441498007818B15A461799904790
:103E80006D1CE00324D55B462146179A059800F087
:103E90004DF805441CE00498002807DBDDE9030128
:103EA000884203DD0098405C179901E017993020A3
:103EB0005A469047049805F10105401C049001986A
:103EC000401E019004D12E205A46179990476D1C30
:103ED000BAF10001AAF1010ADDDC05E017F8010BD7
:103EE0005A46179990476D1CB8F10001A8F10108D6
:103EF000F4DC5B462146179A0598ABE62D000000DE
:103F00002B000000200000002DE9F04104460025B0
:103F10001E461746880404D405E039462020B047E1
:103F20006D1C641EF9D52846BDE8F0812DE9F041ED
:103F3000044600251E469046C80301D5302700E000
:103F40002027880404D505E041463846B0476D1C5B
:103F5000641EF9D52846BDE8F0810A68531C0B6041
:103F6000107070472DE9F04105461E4617468846F9
:103F70002A2000F00BF9144C012210212046FDF7F5
:103F8000ADF9002000F01EF9284600F01BF90020D2
:103F900000F018F9384600F015F92B2000F0F6F87B
:103FA000012210212046FDF799F9002000F00AF9BE
:103FB000404600F007F9002000F004F93046BDE863
:103FC000F04100F0FFB80000000801402DE9F04783
:103FD000824608981F46C0F3072900F0FF081646DE
:103FE0000C465046FFF7BEFF2C2000F0CFF8012210
:103FF00010210B48FDF772F9761C7F1C0BE055462B
:1040000005E04146484600F0AFF86D1CEDB2B54200
:10401000F7D3641CE4B2BC42F1D3BDE8F0870000E2
:104020000008014010B5144C002210212046FDF775
:1040300055F90A20FDF748F8012210212046FDF726
:104040004DF90A20FDF740F8112000F09FF8782084
:10405000FDF73AF83A2000F099F8052000F0A4F8AE
:10406000362000F093F8142000F09EF8BDE81040D0
:10407000292000F08BB80000001001402DE9FF4F0F
:10408000144601F1080281B0D3B200F10C02D2B2A1
:10409000DDF838A0FFF766FF2C2000F077F801224A
:1040A00010212448FDF71AF90025203CC4EBC40078
:1040B000DFF884B000900098022405EB400900BFAF
:1040C000C4EBC401494401EB0B00610010F8070C7C
:1040D000891E8840C7B2022C06D0072080460026E1
:1040E000380603D5049902E00620F7E75146780622
:1040F000070EC1F30720C9B200F036F8761CF6B2FD
:104100004645EDD3641E14F0FF04D9D16D1CEDB209
:10411000072DD0D3CAF307260AF0FF0529463046FB
:1041200000F022F8641CE4B20D2CF7D305B0BDE812
:10413000F08F000000080140E04500082DE9F84339
:104140001F4614460D468046089E08E03B46294619
:1041500040460096FFF792FF0835EDB2641C2278C6
:10416000002AF3D1BDE8F88338B50D46044600F0C7
:10417000D5F98DF8005001238DF801401A466946A3
:104180000148FDF72DFD38BD2001002010B5044683
:10419000002210210348FDF7A1F82046BDE8104099
:1041A00000F010B80008014010B5044601221021AB
:1041B0000348FDF793F82046BDE8104000F002B830
:1041C0000008014001B500F0B3F901231A46694621
:1041D0000148FDF705FD08BD2001002008B5FDF7E9
:1041E00069F9FEF7FBFEFEF761FBFEF741FBFEF708
:1041F000CFFBFEF711FCFEF745FCFEF777FCFEF760
:10420000ABFCFEF751FDFEF7E3FBFEF7DBFCFEF730
:1042100029FDFEF765FDFEF781FD1821B748FDF782
:1042200019FF1821B648FDF715FF1821B548FDF70D
:1042300011FF1821B448FDF70DFFB448FDF7FCFD50
:10424000AE4847F6FF7100684162AD4800684162C0
:10425000AC4800684162AC48006841620822AC4941
:10426000AC48FEF7B5FA4B20FEF7A6FEFFF71CF8A8
:10427000FFF7D8FE0026A023802231463046009664
:10428000FFF7A4FEA24C0127DFF88C924FF4000840
:10429000403C08229E499F48FEF79AFAFCF7DCFB57
:1042A000FCF70AFCA07878287ED0642869D01ADC54
:1042B000612837D062284AD06328EAD16770606BE2
:1042C000FCF78FF91FFA80FB206BFCF78AF91FFAC5
:1042D00080FAE06AFCF785F985B2A06AFCF781F9FB
:1042E00080B2022119E0652862D0662876D0732852
:1042F000CFD16670606BFCF774F91FFA80FB206BFE
:10430000FCF76FF91FFA80FAE06AFCF76AF985B2E8
:10431000A06AFCF766F980B2042100915B46524620
:1043200029462BE06770606BFCF75BF91FFA80FB96
:10433000206BFCF756F91FFA80FAE06AFCF751F996
:1043400085B2A06AFCF74DF980B20096E6E7677087
:10435000606BFCF746F91FFA80FB206BFCF741F914
:1043600085B2E06AFCF73DF91FFA80FAA06AFCF713
:1043700038F980B25B462A4651460097FEF7EEFCBC
:1043800087E76770606BFCF72CF91FFA80FB206BE6
:10439000FCF727F91FFA80FAE06AFCF722F985B2E8
:1043A000A06AFCF71EF900E02DE080B20321B4E71B
:1043B0006770606BFCF715F91FFA80FB206BFCF748
:1043C00010F91FFA80FAE06AFCF70BF985B2A06ACF
:1043D000FCF707F980B20A219FE7FFE76770606B7F
:1043E000FCF7FFF81FFA80FB206BFCF7FAF81FFAC6
:1043F00080FAE06AFCF7F5F885B2A06AFCF7F1F8FC
:1044000080B2092189E76770E06B002830DAFEF797
:1044100059FFA16AFBF7CAFE4D46A062A84201DB24
:10442000A56202E0404500DAA662E06BFEF74AFFB3
:10443000E16AFBF7BBFEE062A84201DBE56202E055
:10444000404500DAE662E06BFEF73CFF216BFBF7CC
:1044500002FF2063A84201DB256302E0404500DA49
:104460002663E06BFEF72EFF616BFBF7F4FE30E096
:1044700037DDFEF727FFA16AFBF7EDFE4D46A06290
:10448000A84201DBA56202E0404500DAA662E06BCB
:10449000FEF718FFE16AFBF7DEFEE062A84201DBEF
:1044A000E56202E0404500DAE662E06BFEF70AFFF3
:1044B000216BFBF77BFE2063A84201DB256302E052
:1044C000404500DA2663E06BFEF7FCFE616BFBF70C
:1044D0006DFE6063A84201DB656302E0404500DADF
:1044E0006663606BFCF77DF885B2A06AFCF779F82B
:1044F00080B22946FCF7DAF9CBE60000780100200B
:10450000B8010020F801002038020020B802002085
:1045100048000020F80200200000F04103494FF459
:104520000060C8600846FDF7E1BA000020010020E5
:1045300002490020C8600846FDF7D8BA20010020D3
:104540000000182442424242424242241800000025
:1045500000007C10101010101010101C1000000033
:1045600000007E4204081020404242423C0000000D
:1045700000003C4242402018204042423C000000E3
:104580000000F82020FE22242428303020000000E3
:1045900000001C22424040221E0202027E00000057
:1045A00000003844424242463A0202241800000009
:1045B0000000080808080810102020427E000000B3
:1045C00000003C4242422418244242423C00000087
:1045D0000000182440405C62424242221C0000005D
:1045E00000000000000000000000000000000000CB
:1045F00000F800000000000004000000003808007F
:10460000380800000000000000000040E058E058BA
:1046100000000D030D030100006090989000000061
:1046200003020E0100000090A8904040000000002E
:10463000020502000000C020200000000304050263
:1046400005000000007800000000000000000000ED
:10465000000000E018000000000007180000000043
:1046600018E0000000000018070000000010D0381B
:10467000D0100000000000000000808080F08080EA
:1046800080000000070000000000000000000000A3
:1046900000180E0200000080808080800000000072
:1046A00000000000000000000000000000060600FE
:1046B00000000000008060180000080601000000F3
:1046C00000F0080808F000000304040403000000E0
:1046D00008F8000000000404070404000010088823
:1046E000483000000605040406000010084848B0E1
:1046F00000000204040403000080403008F80000B9
:1047000001010105070500007848488800000204FF
:104710000404030000E05048488800000304040437
:10472000030000180808C838000000000601000057
:1047300000B0484848B000000304040403000070BF
:10474000888888F000000404040201000000606012
:10475000000000000006060000000000006060008D
:104760000000000C060200008040402010100000F5
:1047700001010204040000404040404000000101EB
:1047800001010100101020404080000404020101DA
:1047900000000000201090600000000405000000F0
:1047A00000F804C424F80000070808090500000008
:1047B000E818E000000407050105070408F8484868
:1047C00048B0000407040404030000F008080818B7
:1047D000000003040404020008F8080810E00004C4
:1047E00007040402010008F848E808180004070458
:1047F000040406000008F848E8081800040704004C
:10480000000000F0080888988000030404040300F6
:1048100008F8484048F808040704000407040008A2
:1048200008F80808000004040704040000800808D1
:10483000F808000003040403000008F888C02818E2
:1048400008040704000106040008F808000000003E
:1048500004070404070008F838C038F808040704FF
:104860000004070408F838C008F808040704010623
:10487000070000F0080808F0000003040404030027
:104880000008F8888870000004070400000000F0A9
:10489000080808F0000003040C0C0B0008F88888D6
:1048A0008870000407040001020400304848509852
:1048B0000000060204040300180808F8080818009D
:1048C00000040704000008F8080008F808000304C2
:1048D000040403000838C800C838080000010601B5
:1048E000000008F808C008F80800030403040300E7
:1048F000081820C020180804060100010604081842
:10490000688068180800000407040000001808C840
:10491000281800000605040406000000F808080036
:104920000000001F10100000000870800000000050
:104930000000010E000000000808F8000000001050
:10494000101F000000402018204000000000000060
:104950000000000000000000002020202020202077
:1049600000000008100000000000000000000040EF
:10497000A0A0A0C0000003040404070408F840201D
:1049800020C0000407040404030000C020202060AD
:10499000000003040404020000C0202048F80000C6
:1049A00003040404070400C0A0A0A0C00000030486
:1049B000040404000020F028282800000407040450
:1049C000040000C0202040E02000031414140F0055
:1049D00008F8402020C00004070400040704002059
:1049E00020E8000000000404070404000020202840
:1049F000E00000001010100F000008F880A06020F8
:104A00000004070005060400000008F8000000008C
:104A100004040704040020E020C020C000040704B0
:104A20000704070420E0402020C00004070400041D
:104A3000070400C0202020C0000003040404030079
:104A400020E0402020C000101F140404030000C018
:104A5000202040E02000030404141F100020E04048
:104A6000202000000407040404000040A0A0A0606F
:104A700000000604040403000020F02020200000B1
:104A800000030404040220E0000020E0000003040E
:104A90000402070420E0200020E0200000030403BB
:104AA000000020E0208020E0200003040304030035
:104AB0002060808060200004060101060400206060
:104AC000A00020E0200010111E130000006020A0B4
:104AD00060200000060504040600000000F0080045
:104AE000000000010E100000000000F800000000AF
:104AF00000000F000000000008F00000000000109F
:104B00000E01000000008000008000000100010193
:104B10000000F808080808F8000704040404070067
:104B20001808F888584080000407040004030008AF
:104B3000F80A09083800040704000000000000001B
:104B400000000000180E020000000020E02824E011
:104B50000000040704000100000000000000000045
:104B600008040A0402000000000000000000040025
:104B700004000400002020F82020000000000700AE
:104B80000000002020F820200000010107010100A2
:104B9000A0F0A8A8A8A81800010204040402106844
:104BA0005020200000000205020205020008F8085B
:104BB000F848800604030407040300804020000036
:104BC0000000010204000000F88880F888800007D7
:104BD00004000704040308F848A211081804070495
:104BE000000106041808F88858C0000004070400F3
:104BF000070408F8080008F8080407041C04070460
:104C000010F8505040800004071410100F000000EE
:104C10000008386000000000000000000060380854
:104C20000000000000000000000000081028102014
:104C30000000000000000000002010281008000004
:104C40000000000000000000E0E0E00000000000C4
:104C500000000000008080808080000000000000D4
:104C600000008080808080808000000000000000C4
:104C7000F808080808F80007040404040700784846
:104C800078582058780000000000000020E020E064
:104C9000A0800004070007040700000000204080F7
:104CA000000000000402010020E080E0A080000479
:104CB00007000704070020E0A0C8246000040704E0
:104CC0000001060410F8505040800004070400045E
:104CD000070420E0200020E0200407041C0407044F
:104CE0000000000000000000000000000000083884
:104CF00049824A3908000406010000002060A40827
:104D000028E4200018110E03000000800808F808AD
:104D100000000304040300000010E02020E0100065
:104D20000201010101020008F808080E0000040752
:104D300004000000000000780000000000001E00D9
:104D400000000060B828488818000C08090A0E0303
:104D500008F84AE80A180004070404040600C02002
:104D6000D0505020C00102050505020100F048485E
:104D70004818000003040404020000008040008082
:104D800040000102040102040000000000000001D4
:104D90000101010101070080808080800000000087
:104DA00000000000C020F0B07020C0010305050520
:104DB000020100080AF80A080000040407040400BD
:104DC00000001C141C000000000000000000808097
:104DD00080F080808004040407040404000808F8BC
:104DE00008080000040407040400002020E8000074
:104DF00000000404070404000020E0202038000024
:104E000004070400000020E0000020E000001F0470
:104E100004020704708888F808F8080008080F00E2
:104E20000F080000C0C000000000000000000000EB
:104E300000C0A8A0A8C0000003040404040008F8EF
:104E40007088F808700407040307000100C0A0A0E0
:104E50002060000003040404020040800040800041
:104E6000000402010402010000202028E0000000EC
:104E70001010100F00000030484850980000060243
:104E8000040403000040A0A0A06000000604040485
:104E90000300002028E008000000040407040400C8
:104EA0000000E818E000000407050105070408F801
:104EB00048484898000407040404030008F84848D8
:104EC00048B000040704040403000008F8080808B8
:104ED000380004070400000008F80808F808001C5F
:104EE000070404071C0008F848E808180004070431
:104EF000040406000818A0F8A0180804070007001A
:104F000007040038104848B00000040404040300FB
:104F100008F808C030F8080407030004070408F87C
:104F200009C232F9080407030004070408F848A07E
:104F3000100818040704000106040008F80808F81F
:104F4000080404030004070408F838C038F808040B
:104F500007040004070408F8484048F80804070458
:104F60000004070400F0080808F00000030404042B
:104F7000030008F8080808F80804070400040704F8
:104F80000008F8888870000004070400000000F0A2
:104F9000080808180000030404040200180808F8B0
:104FA0000808180000040704000008384880483842
:104FB0000800040601000000C02028F82820C000D6
:104FC000010507050100081820C020180804060183
:104FD0000001060408F8080008F80804070404049F
:104FE000071C08F8080088F80800000101040704FD
:104FF00008F800F800F8080407040704070408F894
:1050000000F800F8080407040704071C7808F848AB
:105010004040800004070404040308F8488008F8AE
:10502000080407040304070408F84840408000040B
:105030000704040403000018484848F00000020474
:105040000404030008F848F00808F0040704030407
:1050500004030070888888F808040300000407042B
:105060000040A0A0A0C0000003040404070400F056
:1050700048282CC000000304040403000020E0A022
:10508000A04000000407040407000020E02020E006
:1050900000000407040001000020E02020E0200CB4
:1050A00004070404070C00C0A0A0A0C00000030473
:1050B00004040400602040E0402060040601070171
:1050C00006040020A0A0A040000004040404030083
:1050D00020E0208040E0200407020104070420E0D3
:1050E000248848E4200407020104070420E0A0C04B
:1050F000206000040704000106040020E02020E0F6
:10510000200604030004070420E0608060E020041F
:1051100007040104070420E0A080A0E020040704A5
:105120000004070400C0202020C000000304040481
:10513000030020E0202020E02004070400040704EE
:1051400020E0402020C000101F140404030000C011
:1051500020202060000003040404020000E020E09E
:1051600020E000000004070400002060A00020E010
:10517000200018110E030000C02028F82020C003D2
:1051800004141F14040320608080602000040601C2
:105190000106040020E0200020E0200407040404AD
:1051A000070C20E02000A0E020000101010407041A
:1051B00020E000E000E0200407040704070420E0EA
:1051C00000E000E0200407040704070CE020E0A052
:1051D0008080000004070404030020E0A08020E099
:1051E000200407040704070420E0A08080000004D6
:1051F000070404040300006020A0A0C00000020413
:105200000404030020E0A0C02020C004070403041D
:10521000040300C02020E02000040601050704006C
:10522000FFFFFFFFFFFFFFFFFFFFFFFFFFFFFFFF8E
:10523000FFFFFFFFFFFFFFFFFFFFFFFFBEF77DEF59
:10524000BAD6B6B5F39CB294B39CB29434A5F7BD6C
:10525000FBDE7DEFFFFFFFFFFFFFFFFFFFFFFFFF15
:10526000FFFFFFFFFFFFFFFFFFFFFFFFFFFFFFFF4E
:10527000FFFFFFFFFFFFFFFFFFFFFFFFFFFFFFFF3E
:10528000FFFFFFFFFFFFFFFFBEF7FBDEF39CCB5AE4
:10529000C739042182104210421041088318452961
:1052A000C7390C6375AD3CE7BEF7FFFFFFFFFFFF9B
:1052B000FFFFFFFFFFFFFFFFFFFFFFFFFFFFFFFFFE
:1052C000FFFFFFFFFFFFFFFFFFFFFFFFFFFFFFFFEE
:1052D000FFFFFFFFFFFF3CE7B2940842C3188210B4
:1052E00004214529863186318631863145290421BC
:1052F00082104108C3180842F39C3CE7FFFFFFFF00
:10530000FFFFFFFFFFFFFFFFFFFFFFFFFFFFFFFFAD
:10531000FFFFFFFFFFFFFFFFFFFFFFFFFFFFFFFF9D
:10532000FFFFFFFFFBDE0C63C318C3184529C73915
:10533000084208420842084208420842C739C739B1
:1053400086318631042141088210CB5ABAD6FFFF3C
:10535000FFFFFFFFFFFFFFFFFFFFFFFFFFFFFFFF5D
:10536000FFFFFFFFFFFFFFFFFFFFFFFFFFFFFFFF4D
:10537000FFFFFBDECB5A82104529C739084208429D
:10538000094A494A494A494A494A494A0842C739A1
:10539000C739C7398631452983180000C84138C646
:1053A000FFFFFFFFFFFFFFFFFFFFFFFFFFFFFFFF0D
:1053B000FFFFFFFFFFFFFFFFFFFFFFFFFFFFFFFFFD
:1053C0007DEF8E7382104529C7390842094A8A52F7
:1053D0003084CF7B8A52494A4A52494ACB5ACF7BC2
:1053E0000C630842C73986314529C3180000494A71
:1053F000BAD6FFFFFFFFFFFFFFFFFFFFFFFFFFFF2B
:10540000FFFFFFFFFFFFFFFFFFFFFFFFFFFFFFFFAC
:10541000F39CC3180421C7390842494A494A729487
:105420007DEF7DEFB2944A52494A8A5275ADBEF77C
:10543000BAD64D6BC739C73986314529C3184108DB
:10544000CF7B7CE7FFFFFFFFFFFFFFFFFFFFFFFFBB
:10545000FFFFFFFFFFFFFFFFFFFFFFFFFFFFBAD6CA
:1054600008428210C7390842494A494A8E73FBDE16
:10547000FFFFBEF7BAD68E73084230843CE77DEF5B
:10548000FFFFB6B5494AC73986314529042141088D
:105490004529B6B5FFFFFFFFFFFFFFFFFFFFFFFF3F
:1054A000FFFFFFFFFFFFFFFFFFFFFFFFBEF7718C56
:1054B000410845290842494A494A4A52B294BEF72E
:1054C000BEF7B294CF7BCF7B494AB6B5F39C0C6351
:1054D00038C6BAD60C638739C73986314529C3180F
:1054E000410830847DEFFFFFFFFFFFFFFFFFFFFF5D
:1054F000FFFFFFFFFFFFFFFFFFFFFFFF3CE7CB5A70
:105500004108C7390842494A4A528A52F39CFFFF70
:105510007DEFC739C3180C63CB5AB6B5B294CB5ADA
:1055200075ADFAD64D6B8739C739863145290421C7
:1055300041088A5279CEFFFFFFFFFFFFFFFFFFFF09
:10554000FFFFFFFFFFFFFFFFFFFFFFFF38C68631B2
:105550000421C841494A494A4A52494AB18CBEF7D6
:10556000BEF7B294CF7BCF7B494A74A57DEF7CE731
:10557000BEF779CE0C63C739C73986314529042176
:105580008210452975ADBEF7FFFFFFFFFFFFFFFF4C
:10559000FFFFFFFFFFFFFFFFFFFFFFFF34A58210AC
:1055A00086310842494A494A8A52494A4D6BBAD61D
:1055B000FFFFFFFF79CE0D63C739CF7B7DEFFFFF84
:1055C000FFFF75AD08428631C73986314529452927
:1055D000C318C318B2947DEFFFFFFFFFFFFFFFFF6B
:1055E000FFFFFFFFFFFFFFFFFFFFBEF7B28C410889
:1055F000C7390842494A494A8A528A524A4AD07BA4
:105600007AC67BBE906BC9398831C939B384BBC6B1
:10561000F8B5CC5A8631C739C7398631452945296D
:10562000C420410830843CE7FFFFFFFFFFFFFFFF7E
:10563000FFFFFFFFFFFFFFFFFFFF3CE78A4AC310AA
:10564000C7390842494A494A4A4A4A42093A084A35
:10565000096B497BC67A05834683C57AC672097B86
:10566000485A87318821882986318631452945293C
:10567000042141084A4ABAD6FFFFFFFFFFFFFFFFA0
:10568000FFFFFFFFFFFFFFFFFFFFF7C58250054150
:10569000C7290842494A4A42494A097B889BC6B3FE
:1056A00021D4A0DCE1E461ED61ED21EDA0E420DC9A
:1056B00080CB43ABC482065A472146294529042999
:1056C000041982108218F39C7DEFFFFFFFFFFFFF9C
:1056D000FFFFFFFFFFFFFFFF7DEF4D9300A082B8AC
:1056E000C7310932494A867A43C36BEDF4F6EBFDC4
:1056F00020FD20FD60FDA0FDA0FD60FD60FD20FD02
:10570000E0FCA0FC60F4C1DB839AC549452904197B
:10571000C42082380050CB6ABAD6FFFFFFFFFFFFDC
:10572000FFFFFFFFFFFFFFFFFBEE04A100C000F043
:10573000C3A0C8414942059B20FCA4FC69FDE8FDCB
:1057400063FD20FD60FD60FD60FD20FD20FDE0FCAF
:10575000E0FCA0FC60FC20FC41D3C5494519C438DD
:10576000826841880070495A79CEFFFFFFFFFFFF32
:10577000FFFFFFFFFFFFFFFFFBF682C000D086C1E7
:1057800046F141C8457989528862866AC67AC4BBA7
:10579000E1FC60FD60FDA0FDA0FD60FD60FDE0FCA2
:1057A00060E403938472446AC5414529C35841A803
:1057B000409800B000600C6B79CEFFFFFFFFFFFF49
:1057C000FFFFFFFFFFFF7DEFCE83828800F8C4D884
:1057D0000CF38AFA82E882B04569C7510842083A58
:1057E000865A839BA2BC22CD21CDA1C422B4C47A07
:1057F000063A862945290531C450419000C000A8C9
:1058000000A000A800304A4ABAD6FFFFFFFFFFFF02
:10581000FFFFFFFF7DEF8E73C318053982A800F8E4
:10582000C3F84DFB4DFBC7F9C3F082D8C3B0048168
:105830004561465186498649464145414541454174
:1058400005490461829041B000D000C800A800A8BA
:1058500000B8415882108210B294BEF7FFFFFFFFDC
:10586000FFFFBEF7CF7B8210042186298641049971
:1058700040E841F886F9CBFA49FA82F800F800F0DE
:1058800000E841D841D041C041C041C041C041C8F9
:1058900000D000E000E000D800D000B800A84188A7
:1058A0008248821082100000452979CEFFFFFFFF59
:1058B000BEF7F39C8210C31845298631C731307C6E
:1058C000F3DC86E100F000F841F841F800F800F858
:1058D00000F800F800F800F800F800F800F800F808
:1058E00000E800E000E000D800C841A08A9A0C63FC
:1058F000041182108210410800004D6B7DEFFFFF04
:10590000FBDE08424210452986318631494A38BEBD
:10591000FFFF38D686A900C800E000F000F800F8C4
:1059200000F800F800F800F800F800F800F000F0C7
:1059300000E800E000D0C3988A8AB2A4BAC6F7B5DE
:10594000084241088210410800004529F7BDFFFFC9
:10595000718C410804214529863186310C633CE76E
:10596000FFFF79D646B900E042C882A882B041D88C
:1059700082E882F041E841E841E841F041E841D85D
:1059800004C108924D8B34A5FBC6FBD6BACE3CE7CA
:105990003084C3184108410800004108CF7B7DEFE7
:1059A000494A000004214529463186313084FFFFF1
:1059B000FFF7F7DD09DA83F801F042C08298499ACF
:1059C000F3B4F3CC71BC8EBB8EBB30BC71BCF3BCEA
:1059D000B6BDFBCEBEE77DE73BDFBAD679CEFBDEB8
:1059E00075AD86314108410800000000494AFBDEE0
:1059F000042141080421452945298739B294FFFF34
:105A0000BEF734DD0CEB09FA00F001D800D88BD2D8
:105A10007DE7FFFFFFFFFFFFFFFFFFFFFFFFFFFF30
:105A2000FFFFBEFF7DEFFBDEFBDEBAD679CEBAD636
:105A300078C6C7390000410800000000C73979CE98
:105A400000008210C318042105298631B39CFFFF92
:105A5000FFF775DDC7E9C7F901F801F000E849E291
:105A6000FBEEFFFFFFFFFFFFFFFFFFFFFFFFFFFF5B
:105A7000FFFFBEF77DEFFBDEFBDEBAD679CEBAD6EE
:105A8000B9CE08420000000000000000C73938C647
:105A90000000821082100421042145293084FFFF78
:105AA000FFFF38DEC4D000F001F800F800F008D2A3
:105AB000FBE6FFFFFFFFFFFFFFFFFFFFFFFFFFFF13
:105AC000FFFFBEF77DEFFBDEBAD679CE79CEBAD630
:105AD00079CEC7394108000000000000863138C681
