:020000040800F2
:10000000C0060020450100089F1A0008AD16000830
:100010009D1A000845030008511F00080000000059
:10002000000000000000000000000000C31A0008EB
:100030004703000800000000C11A0008111B000857
:100040005F0100085F0100085F0100085F01000810
:100050005F0100085F0100085F0100085F01000800
:100060005F0100085F0100085F0100085F010008F0
:100070005F0100085F0100085F0100085F010008E0
:100080005F0100085F0100085F0100085F010008D0
:100090005F0100085F0100085F0100085F010008C0
:1000A0005F0100085F0100085F0100085F010008B0
:1000B0005F0100085F0100085F0100085F010008A0
:1000C0005F0100085F0100085F0100085F01000890
:1000D0005F0100085F0100085F0100085F01000880
:1000E0005F0100085F0100085F0100085F01000870
:1000F0005F0100085F0100085F0100085F01000860
:100100005F0100085F0100085F0100085F0100084F
:100110005F0100085F010008AD1B00085F010008D7
:100120005F0100085F0100085F0100085F0100082F
:10013000DFF80CD000F0F4F800480047711F000809
:10014000C00600200648804706480047FEE7FEE755
:10015000FEE7FEE7FEE7FEE7FEE7FEE7FEE7FEE777
:10016000651B000831010008D2B201E000F8012B44
:10017000491EFBD270470022F6E710B513460A4627
:1001800004461946FFF7F0FF204610BDF0B480EAA0
:100190000102D40F4200B2EB410F02D202460846E0
:1001A00011464A0042D0C30DDDB2C1F3C752AD1AA9
:1001B000202D35DAC1F3160141F4000204B1524298
:1001C000C5F1200602FA06F12A411044B3EBD05FD4
:1001D00023D0C4B1012DA0EBC35009DCF0BC4FF01B
:1001E000004202EAC352DBB200F5000000F06AB838
:1001F000400000F1807000EBC350A0F1807040EA35
:10020000D170490009E0490841EAC071A0EBC35030
:1002100000F50000400800EBC350F0BC00F049B806
:100220006142012202EB4101001BF6E7F0BC70477E
:1002300081F00041AAE780F00040A7E780EA0102D0
:1002400010B502F00043400022D04A001FD0010E3A
:1002500001EB1261C0F35600C2F3560240F40000F5
:1002600042F40002A0FB022000047F39140400D0F5
:10027000401C50EA124001D44000491EC2B20C0694
:1002800004EBD010401C4008802A02D003E000207C
:1002900010BD20F00100002900DA0020184310BD35
:1002A000C10F80EAE0700844CA079623002100F0DD
:1002B00009B80029A8BF7047401C490008BF20F0BA
:1002C0000100704710B4B0FA80FC00FA0CF050EA5C
:1002D000010404BF10BC704749B1CCF1200421FADD
:1002E00004F411FA0CF118BF012121430843A3EBD8
:1002F0000C01CB1D4FEA00614FEA102042BF0020E5
:1003000010BC704700EBC35010440029A4BF10BCC0
:100310007047401C490008BF20F0010010BC704726
:10032000064C074D06E0E06840F0010394E8070042
:1003300098471034AC42F6D3FFF7FEFE7C2000084D
:100340009C200008FEE77047704700002DE9F84F39
:10035000DFF8B8A100220AF1040B144601274FF080
:100360000F090BF1040E00BF0B6807FA04F52B40D0
:10037000AB4274D1DFF898C14E68A6EB0C08664515
:100380002BD00DDC032E34D005DC36B3012E19D072
:10039000022E2FD11BE0112E16D0122E2AD119E0D9
:1003A000B8F5881F19D006DCB8F5803F15D0B8F530
:1003B000801F1FD111E0B8F5001F0ED0B8F5041F43
:1003C00018D10AE0CA6815E0CA68121D12E0CA68AE
:1003D00008320FE0CA680C320CE08A682AB1012AA0
:1003E0004FF0080203D0456104E0042202E00561F9
:1003F00000E00022FF2B01D8064601E000F10406D0
:100400004FEA840501D9A5F12005D6F800C009FA04
:1004100005F82CEA080C02FA05F54CEA050CC6F8BA
:1004200000C04D68ED006AD53A4DAE6946F0010650
:10043000AE61AD6924F0030605F001050095364D67
:1004400006EB050CDCF80850A6074FEA167809FA07
:1004500008F6B543314EB04202D100261AE04EE014
:100460002F4EB04201D1012614E02E4EB04201D1F0
:1004700002260FE02C4EB04201D103260AE02B4E9B
:10048000B04201D1042605E0294EB04201D1052633
:1004900000E0062606FA08F62E43CCF808604D6800
:1004A000DAF80060ED03554601D51E4300E09E4397
:1004B0002E604D68AD0305D5DBF800601E43CBF818
:1004C000006004E0DBF800509D43CBF800504D681D
:1004D000DEF80060ED02754601D51E4300E09E4344
:1004E0002E604D68AD0205D5084D0C352E681E43B3
:1004F0002E6004E0054E0C3635689D433560641C63
:10050000102CFFF431AFBDE8F88F0000000401406B
:1005100000001110001002400000014000080140DE
:10052000000C01400010014000140140001801407F
:10053000001C01400AB1016170470904FBE700009B
:1005400001488068704700002800002070B5040052
:100550001BD094F83D00002520B984F83C5020467B
:1005600000F094F8242084F83D002068016821F010
:100570000101016000F004FA404A6168914201D82B
:100580003F4900E03F49884201D2012070BD3E4909
:100590002368B0FBF1F159606368934206D94FF4C8
:1005A000967359434FF47A73B1FBF3F12368491CF6
:1005B00019626168914210D84900401EB0FBF1F207
:1005C000521CC2F30B02042A01D2042022E0B0FB29
:1005D000F1F0401CC0F30B001CE0A368CBB301EBAF
:1005E000C10202EB0116421EB2FBF6F2521C42F4AB
:1005F0008042120536D06BB301EBC10202EB011150
:10060000401EB0FBF1F0401CC0F30B0040F48040F2
:1006100040F400402168C861D4E90701084321681B
:100620000860D4E90310084321688860D4E9050113
:1006300008432168C8602068016841F00101016039
:100640002564202084F83D00256384F83E50002076
:1006500070BD00E008E001EB4106421EB2FBF6F27D
:10066000521CC6E70120D5E701EB4101401EB0FB5B
:10067000F1F0401CC0F30B00CAE70000A0860100A7
:1006800080841E0000093D0040420F0010B586B076
:100690000021009101910291039100680F49884265
:1006A0001AD10F4CA06940F00800A061A06969460A
:1006B00000F008000490C020009012200190032058
:1006C00003900848FFF742FEE06940F40010E06143
:1006D000E06900F40010049006B010BD0054004022
:1006E00000100240000C0140024881680278114469
:1006F0008160704728000020074810B5016841F06C
:1007000010010160032000F073F8002000F006F8EB
:1007100000F024F8002010BD0020024070B50D4DFF
:1007200004464FF47A712878B1FBF0F00A49096861
:10073000B1FBF0F000F076FB48B9102C07D2002294
:100740002146501E00F034F800206C6070BD01207E
:1007500070BD000028000020340000200C4808B5BF
:10076000816941F001018161816901F0010100911C
:10077000C16941F08051C161C06900F080500090B2
:100780000448416821F0E06141F00071416008BD1A
:10079000001002400000014000F01F0201219140C2
:1007A0004009800000F1E020C0F80011704700000F
:1007B000F0B40E4B1B680C46C3F30223C3F10705CC
:1007C000042D00D90425191D072901D2002300E0BA
:1007D000DB1E012606FA05F1491E214099409E4084
:1007E000761E16403143F0BC01F05AB90CED00E022
:1007F000064900F0070208684FF6FF03184040EA78
:100800000220034A10430860704700000CED00E02E
:100810000000FA052DE9F047DFF8548105460E4641
:10082000D8F8000000F00700B0420CD2D8F8001051
:1008300021F007013143C8F80010D8F8000000F09B
:100840000700B0426FD128684A4C810712D5400793
:1008500003D5606840F4E06060602878000703D545
:10086000606840F4605060606068A96820F0F00043
:10087000084360602878C00744D06868012816D013
:100880002168022816D0890700294CDA616821F016
:10089000030101436160FFF753FE6968074641F2B7
:1008A000883001290ED00229814618D026E021681F
:1008B0008903E9E78901E7E7FFF742FEC11B4945E4
:1008C00001D918E081466068C0F381000128F3D1A6
:1008D00018E000BFFFF734FEC11B49450BD8606824
:1008E000C0F381000228F5D10CE000BFFFF728FE1D
:1008F000C11B494502D90320BDE8F087606810F0AC
:100900000C0FF3D1D8F80010404601F00701B142B6
:100910000BD9016821F0070131430160006800F044
:100920000700B04201D00120E6E72878400705D54E
:100930006068E96820F4E060084360602878000798
:1009400006D56068296920F4605040EAC100606003
:1009500000F036F86168084AC1F30311515CC840E1
:10096000064908600020FFF7D9FE0020C4E7000018
:1009700000200240001002406420000834000020E3
:100980000448054900684968044AC1F30221515CE2
:10099000C840704734000020001002407420000856
:1009A0000448054900684968044AC1F3C221515C02
:1009B000C840704734000020001002407420000836
:1009C00012A185B00FC98DE80F0014A0144A006869
:1009D00004905168134801F00C03042B10D0082B2D
:1009E0000ED1C1F38343C9031DF803000AD5516832
:1009F00004AAC1F34041515C0A4A5043B0FBF1F0F4
:100A000005B0704708494843FAE7000002030405AF
:100A1000060708090A0B0C0D0E0F1010010200004A
:100A20000010024000127A0000093D002DE9F84F45
:100A300004460078B94DC00748D06868C0F381000B
:100A4000012807D06868C0F38100022809D16868CE
:100A5000C00306D52868800338D5606800286FD0A9
:100A600034E06068B0F5803F0BD010B1B0F5A02F36
:100A700011D0286820F480302860286820F4802075
:100A800002E0286840F480302860606888B1FFF791
:100A900057FD064609E0286840F480202860F0E70A
:100AA000FFF74EFD801B642875D828688003F7D5B2
:100AB0000CE0FFF745FD064605E000BFFFF740FDEF
:100AC000801B6428F0D828688003F7D42078944EDF
:100AD00080074FF001094FF000083BD5686810F01F
:100AE0000C0F07D06868C0F38100022809D168683C
:100AF000C00306D42868800714D5206901281FD1B7
:100B000010E02069B0B1C6F80090FFF719FD074664
:100B100005E000BFFFF714FDC01B0228C4D82868F9
:100B20008007F7D52868616920F0F80040EAC10025
:100B300028600FE0C6F80080FFF702FD074606E0D8
:100B4000E9E000BFFFF7FCFCC01B022823D828689F
:100B50008007F7D4207800072CD57248A169D9B155
:100B6000C0F80090FFF7ECFC074604E0FFF7E8FC54
:100B7000C01B02280FD8686A8007F7D56A484FF46F
:100B8000FA510068B0FBF1F0009000BF0098411EE0
:100B90000091FAD20EE080E0C0F80080FFF7D0FCB0
:100BA000074604E0FFF7CCFCC01B022875D8686A32
:100BB0008007F7D42078400760D5E8690027C00097
:100BC00008D4E86940F08050E861E869012700F046
:100BD0008050009055480168C90513D401688346C8
:100BE00041F480710160FFF7ABFC824606E000BF74
:100BF000FFF7A6FCA0EB0A0064284ED8DBF8000043
:100C0000C005F5D5E06801280AD008B1052813D041
:100C1000286A20F001002862286A20F0040002E01F
:100C2000286A40F001002862E06841F2883B98B1F0
:100C3000FFF786FC82460BE0286A40F00400286239
:100C4000EEE700BFFFF77CFCA0EB0A0159455AD83C
:100C5000286A8007F6D50CE0FFF772FC824605E0B3
:100C6000FFF76EFCA0EB0A0159454CD8286A8007B3
:100C7000F6D41FB1E86920F08050E861E06988B3DC
:100C80006968C1F38101022945D00228C6F8608055
:100C900004D0FFF755FC044638E034E0FFF750FC81
:100CA000074604E0FFF74CFCC01B02282BD828683D
:100CB0008001F7D4206AB0F5803F05D16868A1684B
:100CC00020F4003008436860D4E9080108436968EB
:100CD00021F4741108436860C6F86090FFF730FC97
:100CE000044606E015E000BFFFF72AFC001B0228BF
:100CF00009D828688001F7D50BE000BFFFF720FC7A
:100D0000001B022802D90320BDE8F88F2868800163
:100D1000F4D40020F8E70120F6E7000000100240BC
:100D20000000424280044242340000200070004033
:100D300070B5040005D00025A56294F8510010B1EB
:100D400004E0012070BD204600F034F8022084F851
:100D500051002068016821F040010160D4E90101DF
:100D60000843D4E903121143084361690843218B06
:100D700001F400710843E1690843216A0843A16A4C
:100D8000084321680860A069042101EA1040616AF3
:100D90000843216848602168E06A08612068C169E9
:100DA00021F40061C1616565012084F851000020D3
:100DB00070BD000030B585B0002400940194029409
:100DC000039400681449884223D11448816941F48E
:100DD00080518161816901F480510491816941F000
:100DE0000401816180690E4D00F004000490A02090
:100DF0000090022001900320039069462846FFF7E7
:100E0000A5FA4020CDE90004694628460294FFF780
:100E10009DFA05B030BD00000030014000100240D6
:100E20000008014010B5401EB0F1807F01D30120C1
:100E300010BD4FF0E02460610F21601700F030FE1C
:100E40000020A06107202061002010BD704770477E
:100E500030B590F83C20012A20D0012280F83C20B7
:100E6000022380F83D3003685C6824F070045C6005
:100E700003685C680D682C435C6003689C6824F020
:100E800080049C6003689C6849680C439C6080F8FF
:100E90003D20002180F83C10084630BD022030BDC6
:100EA00010B5040003D094F83D0010B107E0012014
:100EB00010BD002084F83C00204600F00DF8022010
:100EC00084F83D00211D206800F076FE012084F8A2
:100ED0003D00002010BD000008B500680B498842A5
:100EE00012D10B48C16941F01001C161C0690022F3
:100EF00000F01000009011463620FFF759FCBDE8C5
:100F000008403620FFF748BC08BD00000010004034
:100F1000001002400168CA6842F00102CA6000681D
:100F2000016841F001010160002070472DE9F041A6
:100F30000D46040003D094F83D0018B108E00120EC
:100F4000BDE8F081002084F83C00204600F03AF82B
:100F5000022084F83D002068816821F0070181604B
:100F6000211D206800F028FE226890689169166AA9
:100F70002B68AF69034340F20330814341EA072104
:100F8000A868EF6908434FF6FC418843E96840EAE6
:100F90000720014328692F6A000140EA073008430F
:100FA00069686D6926F0AA0646EA0515294393602B
:100FB0002268906120680162012084F83D000020D1
:100FC000BEE7000030B585B000250095019502957B
:100FD00003954D4A01684D484D4C91421ED181699F
:100FE00041F400618161816901F4006104918169CA
:100FF00041F0400181618069694600F04000049041
:101000004FF4206000904348FFF7A0F9606820F09B
:10101000C00040F0E06040F0C00051E0B1F1804F0E
:1010200020D03D4A91424ED1C16941F00201C161D7
:10103000C16901F002010491816941F010018161EF
:101040008069694600F010000490C0200090334889
:10105000FFF77CF9606820F4406040F0E06040F405
:1010600040602DE0C16941F00101C161C16901F039
:1010700001010491816941F004018161816901F0FC
:1010800004010491816941F0080181618069694628
:1010900000F0080004904FF4004000902048FFF753
:1010A00055F90820CDE9000569461E480295FFF76D
:1010B0004DF9606820F4407040F0E06040F48070CA
:1010C000606005B030BD184A9142FAD1C16941F063
:1010D0000401C161C16901F004010491816941F019
:1010E000200181618069694600F0200004904FF47E
:1010F000405000900D48FFF729F9606840F0E0602B
:1011000040F48050DCE70000002C01400010024059
:1011100000000140001801400004004000100140A0
:1011200000080140000C014000080040001401408C
:1011300010B50446006891B1042904D001220021B1
:1011400000F080FD206801225FF0040100F07AFDCC
:101150002068016841F001010160002010BD0122FA
:101160000021F3E7704770B50446006801694FF04D
:101170000005C943890715D4C168C943890711D43B
:10118000E91E0161012020772068806980072046E0
:1011900002D0FFF7E7FF04E000F0E9F8204600F096
:1011A0009BF9257720680169C943490717D4C168AD
:1011B000C943490713D46FF004010161022020776D
:1011C0002068806910F4407F204602D0FFF7CAFFF4
:1011D00004E000F0CCF8204600F07EF92577206886
:1011E0000169C943090716D4C168C943090712D464
:1011F0006FF008010161042020772068C069800732
:10120000204602D0FFF7AEFF04E000F0B0F8204621
:1012100000F062F9257720680169C943C90617D42F
:10122000C168C943C90613D46FF0100101610820D9
:1012300020772068C06910F4407F204602D0FFF775
:1012400091FF04E000F093F8204600F045F925777F
:1012500020680169C943C90708D1C168C943C907E2
:1012600004D1891E0161204600F054F9206801690B
:10127000C943090609D4C168C943090605D46FF0FA
:10128000800101612046FFF7E1FD20680169C94343
:10129000490609D4C168C943490605D46FF0400125
:1012A0000161204600F098F920680169C943890668
:1012B0000BD4C168C943890607D46FF020010161CE
:1012C0002046BDE87040FFF7C2BD70BD00B585B0D7
:1012D0000021009101910291039100680B4988421D
:1012E00011D10B48816941F004018161806969462F
:1012F00000F0040004900F20009002200190039061
:101300000448FFF723F805B000BD0000000C0040C2
:10131000001002400008014070B5044690F83C00FF
:1013200001280DD0012584F83C50022084F83D00AE
:1013300042B1042A0AD0082A0CD00C2A11D10DE09F
:10134000022070BD206800F089FC0AE0206800F0EF
:10135000B5FC06E0206800F0E7FC02E0206800F041
:1013600017FD84F83D50002084F83C0070BD7047A4
:1013700010B5040003D094F83D0010B107E001203F
:1013800010BD002084F83C00204600F00CF802203C
:1013900084F83D00211D206800F00EFC012084F837
:1013A0003D00002010BD704770B5044690F83C0029
:1013B0000D4601280DD0012684F83C60022084F8F7
:1013C0003D0042B1042A18D0082A2AD00C2A4DD157
:1013D00039E0022070BD206800F040FC206881697F
:1013E00041F0080181612068816921F00401816177
:1013F000206881692A69114311E0206800F05EFCD1
:101400002068816941F4006181612068816921F46B
:1014100080618161206881692A6941EA02218161D4
:1014200024E0206800F080FC2068C16941F00801D8
:10143000C1612068C16921F00401C1612068C169EE
:101440002A69114311E0206800F0A2FC2068C169FC
:1014500041F40061C1612068C16921F48061C1610A
:101460002068C1692A6941EA0221C16184F83D60AE
:10147000002084F83C0070BD10B5040003D094F83F
:101480003D0010B107E0012010BD002084F83C00B1
:10149000204600F00DF8022084F83D00211D206850
:1014A00000F08AFB012084F83D00002010BD000000
:1014B00008B500680649884208D10648C16941F06C
:1014C0000801C161C06900F00800009008BD00007B
:1014D000000C0040001002407047000010B50446A8
:1014E0000068012200F0AEFB08492068884202D063
:1014F0000749884203D1416C41F4004141642068AE
:10150000016841F001010160002010BD002C014084
:10151000003401402DE9F047294988424DD1294C3A
:101520002088401C80B22080B0F57A7F45D9DFF852
:101530009880D8F80000406A244F606039684A6A91
:10154000234EA2603168496ADFF88890E160D9F8DB
:1015500000305B6A47F6FF75281AC4E90430A5EB32
:101560000303A5EB0202A5EB01012362C4E90621F6
:1015700001D540426061002A01DA5042A061002991
:1015800001DA4842E061002B01DA584220626069CA
:1015900000F098FAA06900F095FAE06900F092FA7C
:1015A000206A00F08FFAD8F800004562386845627A
:1015B00030684562D9F800004562BDE8F087000058
:1015C0004002002004000020000100204001002013
:1015D00080010020C0010020704770B5040004D0D5
:1015E00094F83900002510B106E0012070BD84F8A0
:1015F0003850204600F022F8242084F83900206872
:10160000C16821F40051C160204600F0E9FB206868
:10161000016921F4904101612068416921F02A01AA
:1016200041612068C16841F40051C160E563202038
:1016300084F8390084F83A00002070BD30B585B0D8
:101640000024009401940294039400681449884291
:1016500024D11448C16941F40021C161C16901F478
:1016600000210491816941F01001816180690E4D72
:1016700000F0100004904FF4806000900220019070
:101680000320039069462846FEF760FEE814CDE982
:101690000004694628460294FEF758FE05B030BDA6
:1016A000004C00400010024000100140FEE7000026
:1016B00070B586B0002420480094019402940394ED
:1016C000816941F004018161816901F004010491A3
:1016D000816941F040018161816901F0400104911B
:1016E000816941F020018161816901F0200104914B
:1016F000816941F010018161816901F0100104915B
:10170000816941F00801816180690C4E00F0080098
:101710004FF470650490002229463046FEF70AFF18
:1017200001200095CDE9010402200390694630466E
:10173000FEF70CFE06B070BD001002400014014020
:101740000D4810B50B4901600C49416000214FF470
:1017500080428160C0E9031241618161C16101621F
:10176000FEF7F4FE002803D0BDE81040FEF7ECBD04
:1017700010BD00000054004054000020A08601006D
:10178000104810B50E4901604FF48271416000218C
:101790008160C1604FF400720161C0E9051210223E
:1017A000C0E90721416281620A21C162FFF7C0FAE4
:1017B000002803D0BDE81040FEF7C6BD10BD0000F4
:1017C00000300140A800002010B58CB024216846EC
:1017D000FEF7D1FC00241648099414490A940160CC
:1017E0004FF6FF71C0E90114C46004614461846173
:1017F0000320CDE900040120CDE902040494CDE9E1
:101800000540079469460A480894FFF78FFB08B122
:10181000FEF79AFD099409A905480A94FFF718FBF9
:10182000002801D0FEF790FD0CB010BD002C014047
:101830000001002010B58CB024216846FEF79BFC07
:101840000024154809944FF080410A9401604FF636
:10185000FF71C0E90114C460046184610320CDE913
:1018600000040120CDE902040494CDE90540079469
:10187000694609480894FFF759FB08B1FEF764FD73
:10188000099409A904480A94FFF7E2FA002801D054
:10189000FEF75AFD0CB010BD4001002010B58CB011
:1018A00024216846FEF767FC002416480994144971
:1018B0000A9401604FF6FF71C0E90114C46004612D
:1018C00084610320CDE900040120CDE902040494E1
:1018D000CDE90540079469460A480894FFF726FBBE
:1018E00008B1FEF731FD099409A906480A94FFF7EB
:1018F000AFFA002801D0FEF727FD0CB010BD0000A4
:10190000000400408001002010B58CB024216846FE
:10191000FEF731FC00241648099414490A9401602A
:101920004FF6FF71C0E90114C460046184610320B3
:10193000CDE900040120CDE902040494CDE905407D
:10194000079469460A480894FFF7F0FA08B1FEF7D1
:10195000FBFC099409A906480A94FFF779FA0028C4
:1019600001D0FEF7F1FC0CB010BD000000080040F3
:10197000C001002010B58AB0002407941C216846DD
:101980000894FEF7F8FB2548234901604721C0E988
:1019900001146421C0E903148461FFF76DFD08B1EF
:1019A000FEF7D2FC1D48FFF7E3FC08B1FEF7CCFCC4
:1019B000079407A919480894FFF74AFA08B1FEF7F7
:1019C000C3FC6020CDE9000402940022694613485C
:1019D0000494FFF7E9FC08B1FEF7B6FC042269465F
:1019E0000E48FFF7E1FC08B1FEF7AEFC082269469D
:1019F0000A48FFF7D9FC08B1FEF7A6FC0C2269469D
:101A000006480094FFF788FC08B1FEF79DFC0348E8
:101A1000FFF75CFC0AB010BD000C00400002002083
:101A20001CB500240E4800940C4901940160472124
:101A3000C0E901144FF47A718461C160FFF730FA94
:101A400008B1FEF781FC0094694605480194FFF750
:101A5000FFF9002801D0FEF777FC1CBD0010004004
:101A6000400200200C4810B50A4901604FF4E131F2
:101A70004160002181600C22C160C0E904128161D3
:101A8000C161FFF7AAFD002803D0BDE81040FEF7B2
:101A90005BBC10BD004C004080020020FEE7704798
:101AA0000907090E002806DA00F00F0000F1E02017
:101AB00080F8141D704700F1E02080F80014704792
:101AC000704770472DE9F04110490C68A169081A68
:101AD000FEF7E6FBE06005466169A068FEF7AEFB35
:101AE0002669804631466068FEF7A8FB074629460E
:101AF0002068FEF7A3FB3946FEF79AFB4146FEF746
:101B000045FBC4E90456BDE8F08100000000002058
:101B1000FEF7EABD30B58FB028216846FEF72BFBF3
:101B200014210AA8FEF727FB01210804CDE90010C3
:101B30000024029402250491CDE907504FF4E010EF
:101B400009906846FEF772FF0F20CDE90A0568028A
:101B5000CDE90C4002210AA80E94FEF75BFE0FB0FF
:101B600030BD00000D48016841F00101016041688D
:101B70000B4A1140416001680A4A11400160016846
:101B800021F480210160416821F4FE0141604FF49D
:101B90001F0181600449C0030860704700100240C3
:101BA0000000FFF8FFFFF6FE08ED00E00148FFF738
:101BB000DABA000040020020F0B502681C4B1D4D4F
:101BC0001D4E1E4F1E4C4FF0804C984209D0A04233
:101BD00007D0604505D0A84203D0B04201D0B8423A
:101BE00004D122F0700E4A6842EA0E02984209D0EF
:101BF000A04207D0604505D0A84203D0B04201D032
:101C0000B84203D122F44075CA682A4322F0800505
:101C10004A692A4302608A68C2620A6882629842FC
:101C200001D0A04201D10969016301214161F0BDE8
:101C3000002C01400004004000080040000C00405F
:101C40000034014010B50123046A8B409C430462B8
:101C5000036A8A401343036210BD0000F0B5026AB4
:101C600022F001020262036A42688469124E24F083
:101C700073050C682C4323F002058B682B430D4D34
:101C8000A84201D0B04205D123F00807CB683B43FE
:101C900023F00403A84201D0B04205D14D6922F4DB
:101CA000407215438A692A434260846149684163EE
:101CB0000362F0BD002C014000340140F0B5026A1F
:101CC00022F010020262026A436884690D6824F4FB
:101CD000E64444EA05248D6822F0200242EA051217
:101CE0000F4D104EA84201D0B04206D1CF6822F06D
:101CF000800242EA071222F04002A84201D0B0421C
:101D000007D14D6923F4406343EA85038D6943EAB3
:101D1000850343608461496881630262F0BD00000D
:101D2000002C014000340140F0B5026A22F48072B8
:101D30000262026A4368C46922F4007224F07305E7
:101D40000C68124E2C438D6842EA05220E4DA842C3
:101D500001D0B04206D1CF6822F4006242EA0722E5
:101D600022F48062A84201D0B04207D14D6923F429
:101D7000405343EA05138D6943EA05134360C46188
:101D80004968C1630262F0BD002C0140003401408B
:101D900030B5026A22F480520262046A4268C36962
:101DA0000D6823F4E64343EA05238D6824F40054C8
:101DB00044EA0534084DA84202D0084DA84204D197
:101DC0004D6922F4804242EA85124260C36149684B
:101DD0000164046230BD0000002C01400034014069
:101DE0002DE9F041044600680169E26821F44051A0
:101DF000114301612169A0680843616908432168B2
:101E0000CA6841F20C639A430243CA602068416980
:101E1000A26921F44071114341614C492068642555
:101E2000322688423CD1FEF7BBFD00EBC00101EB3E
:101E3000001061688900B0FBF1F7FEF7B1FD00EB1F
:101E4000C00101EB00106168B0468900B0FBF1F001
:101E5000B0FBF5F06FF01801484307EB800106EB8B
:101E60000110B0FBF5F000F0F006FEF799FD00EB75
:101E7000C00101EB001061688900B0FBF1F0B0FB1C
:101E8000F5F006EB0016FEF78BFD00EBC00101EB51
:101E9000001061688900B0FBF1F7FEF781FD3BE0BF
:101EA000FEF76EFD00EBC00101EB001061688900D8
:101EB000B0FBF1F7FEF764FD00EBC00101EB001091
:101EC0006168B0468900B0FBF1F0B0FBF5F06FF04F
:101ED0001801484307EB800106EB0110B0FBF5F059
:101EE00000F0F006FEF74CFD00EBC00101EB001026
:101EF00061688900B0FBF1F0B0FBF5F006EB00166D
:101F0000FEF73EFD00EBC00101EB001061688900A7
:101F1000B0FBF1F7FEF734FD00EBC00101EB001060
:101F200061688900B0FBF1F0B0FBF5F06FF01801CB
:101F3000484307EB800108EB0110B0FBF5F0216886
:101F400000F00F0030448860BDE8F08100380140A7
:101F5000FEE702E008C8121F08C1002AFAD1704744
:101F60007047002001E001C1121F002AFBD1704719
:101F7000FEF7C2FBFFF7CEFDFFF79AFBFFF7E0FB92
:101F8000FFF722FCFFF756FCFFF788FCFFF7BCFCCD
:101F9000FFF768FDFFF7F4FBFFF7ECFCFFF740FDF0
:101FA00000212848FFF79AFA04212648FFF796FAFD
:101FB00018212548FFF7BCF818212448FFF7B8F886
:101FC00018212348FFF7B4F818212248FFF7B0F88A
:101FD0002148FEF79FFF1C4947F6FF7009684862D9
:101FE0001A49096848621A49096848621949096822
:101FF00048621A4F32241A4E07F10408FD144FF4B8
:1020000080694FF4007A4FF4807B3C60C8F8004050
:10201000012229463046FEF78DFA01222946304634
:10202000FEF788FA002249463046FEF783FA01227D
:1020300051463046FEF77EFA002259463046FEF7FA
:1020400079FAE2E7000200200001002040010020B0
:1020500080010020C001002040020020340C00401C
:102060000014014000000000000000000102030411
:102070000607080900000000010203049C20000874
:102080000000002038000000521F0008D420000883
:102090003800002088060000621F00083800002079
:1020A0000000000000000000000000000000000030
:1020B0000000000000000000000000000000000020
:1020C00000000000010000001000000000000000FF
:0420D00000A24A041C
:0400000508000131BD
:00000001FF
